{
  "contractName": "ExecutorOfPath",
  "abi": [
    {
      "inputs": [
        {
          "internalType": "address",
          "name": "_dev",
          "type": "address"
        },
        {
          "internalType": "uint256",
          "name": "_fee",
          "type": "uint256"
        },
        {
          "internalType": "address",
          "name": "_owner",
          "type": "address"
        }
      ],
      "stateMutability": "nonpayable",
      "type": "constructor"
    },
    {
      "anonymous": false,
      "inputs": [
        {
          "indexed": false,
          "internalType": "address",
          "name": "contractAddress",
          "type": "address"
        }
      ],
      "name": "AddWhiteList",
      "type": "event"
    },
    {
      "anonymous": false,
      "inputs": [
        {
          "indexed": true,
          "internalType": "address",
          "name": "previousOwner",
          "type": "address"
        },
        {
          "indexed": true,
          "internalType": "address",
          "name": "newOwner",
          "type": "address"
        }
      ],
      "name": "OwnershipTransferred",
      "type": "event"
    },
    {
      "anonymous": false,
      "inputs": [
        {
          "indexed": false,
          "internalType": "address",
          "name": "contractAddr",
          "type": "address"
        }
      ],
      "name": "RemoveWhiteList",
      "type": "event"
    },
    {
      "anonymous": false,
      "inputs": [
        {
          "indexed": false,
          "internalType": "address",
          "name": "_dev",
          "type": "address"
        }
      ],
      "name": "SetDev",
      "type": "event"
    },
    {
      "anonymous": false,
      "inputs": [
        {
          "indexed": false,
          "internalType": "uint256",
          "name": "fee",
          "type": "uint256"
        }
      ],
      "name": "SetFee",
      "type": "event"
    },
    {
      "anonymous": false,
      "inputs": [
        {
          "indexed": false,
          "internalType": "address",
          "name": "fromToken",
          "type": "address"
        },
        {
          "indexed": false,
          "internalType": "address",
          "name": "toToken",
          "type": "address"
        },
        {
          "indexed": false,
          "internalType": "address",
          "name": "sender",
          "type": "address"
        },
        {
          "indexed": false,
          "internalType": "uint256",
          "name": "fromAmount",
          "type": "uint256"
        },
        {
          "indexed": false,
          "internalType": "uint256",
          "name": "returnAmount",
          "type": "uint256"
        }
      ],
      "name": "Swap",
      "type": "event"
    },
    {
      "anonymous": false,
      "inputs": [
        {
          "indexed": false,
          "internalType": "address",
          "name": "fromToken",
          "type": "address"
        },
        {
          "indexed": false,
          "internalType": "address",
          "name": "sender",
          "type": "address"
        },
        {
          "indexed": false,
          "internalType": "uint256",
          "name": "fromAmount",
          "type": "uint256"
        }
      ],
      "name": "SwapCrossChain",
      "type": "event"
    },
    {
      "anonymous": false,
      "inputs": [
        {
          "indexed": false,
          "internalType": "uint256",
          "name": "balance",
          "type": "uint256"
        }
      ],
      "name": "WithdrawETH",
      "type": "event"
    },
    {
      "anonymous": false,
      "inputs": [
        {
          "indexed": false,
          "internalType": "address",
          "name": "token",
          "type": "address"
        },
        {
          "indexed": false,
          "internalType": "uint256",
          "name": "balance",
          "type": "uint256"
        }
      ],
      "name": "Withdtraw",
      "type": "event"
    },
    {
      "stateMutability": "payable",
      "type": "fallback",
      "payable": true
    },
    {
      "inputs": [],
      "name": "dev",
      "outputs": [
        {
          "internalType": "address",
          "name": "",
          "type": "address"
        }
      ],
      "stateMutability": "view",
      "type": "function",
      "constant": true
    },
    {
      "inputs": [],
      "name": "fee",
      "outputs": [
        {
          "internalType": "uint256",
          "name": "",
          "type": "uint256"
        }
      ],
      "stateMutability": "view",
      "type": "function",
      "constant": true
    },
    {
      "inputs": [
        {
          "internalType": "address",
          "name": "",
          "type": "address"
        }
      ],
      "name": "isWhiteListed",
      "outputs": [
        {
          "internalType": "bool",
          "name": "",
          "type": "bool"
        }
      ],
      "stateMutability": "view",
      "type": "function",
      "constant": true
    },
    {
      "inputs": [],
      "name": "name",
      "outputs": [
        {
          "internalType": "string",
          "name": "",
          "type": "string"
        }
      ],
      "stateMutability": "view",
      "type": "function",
      "constant": true
    },
    {
      "inputs": [],
      "name": "owner",
      "outputs": [
        {
          "internalType": "address",
          "name": "",
          "type": "address"
        }
      ],
      "stateMutability": "view",
      "type": "function",
      "constant": true
    },
    {
      "inputs": [],
      "name": "renounceOwnership",
      "outputs": [],
      "stateMutability": "nonpayable",
      "type": "function"
    },
    {
      "inputs": [],
      "name": "symbol",
      "outputs": [
        {
          "internalType": "string",
          "name": "",
          "type": "string"
        }
      ],
      "stateMutability": "view",
      "type": "function",
      "constant": true
    },
    {
      "inputs": [
        {
          "internalType": "address",
          "name": "newOwner",
          "type": "address"
        }
      ],
      "name": "transferOwnership",
      "outputs": [],
      "stateMutability": "nonpayable",
      "type": "function"
    },
    {
      "stateMutability": "payable",
      "type": "receive",
      "payable": true
    },
    {
      "inputs": [
        {
          "internalType": "address",
          "name": "contractAddr",
          "type": "address"
        }
      ],
      "name": "addWhiteList",
      "outputs": [],
      "stateMutability": "nonpayable",
      "type": "function"
    },
    {
      "inputs": [
        {
          "internalType": "address",
          "name": "contractAddr",
          "type": "address"
        }
      ],
      "name": "removeWhiteList",
      "outputs": [],
      "stateMutability": "nonpayable",
      "type": "function"
    },
    {
      "inputs": [
        {
          "internalType": "address",
          "name": "fromToken",
          "type": "address"
        },
        {
          "internalType": "address",
          "name": "toToken",
          "type": "address"
        },
        {
          "internalType": "address",
          "name": "approveTarget",
          "type": "address"
        },
        {
          "internalType": "uint256",
          "name": "fromTokenAmount",
          "type": "uint256"
        },
        {
          "internalType": "bytes",
          "name": "callDataConcat",
          "type": "bytes"
        },
        {
          "internalType": "uint256",
          "name": "deadLine",
          "type": "uint256"
        },
        {
          "internalType": "bool",
          "name": "isCrossChain",
          "type": "bool"
        }
      ],
      "name": "swap",
      "outputs": [],
      "stateMutability": "payable",
      "type": "function",
      "payable": true
    },
    {
      "inputs": [
        {
          "internalType": "uint256",
          "name": "_fee",
          "type": "uint256"
        }
      ],
      "name": "setFee",
      "outputs": [],
      "stateMutability": "nonpayable",
      "type": "function"
    },
    {
      "inputs": [],
      "name": "withdrawETH",
      "outputs": [],
      "stateMutability": "nonpayable",
      "type": "function"
    },
    {
      "inputs": [
        {
          "internalType": "address",
          "name": "token",
          "type": "address"
        }
      ],
      "name": "withdtraw",
      "outputs": [],
      "stateMutability": "nonpayable",
      "type": "function"
    },
    {
      "inputs": [
        {
          "internalType": "address",
          "name": "_dev",
          "type": "address"
        }
      ],
      "name": "setDev",
      "outputs": [],
      "stateMutability": "nonpayable",
      "type": "function"
    }
  ],
  "bytecode": "0x60806040523480156200001157600080fd5b5060405162001d6338038062001d638339810160408190526200003491620002ee565b60016000556200004d6200004762000149565b6200014d565b60408051808201909152600f8082526e08af0c6eae8dee440decc40a082a89608b1b602090920191825262000085916002916200022b565b5060408051808201909152600a8082526945584355544f525f763160b01b6020909201918252620000b9916003916200022b565b506001600160a01b038316620000ec5760405162461bcd60e51b8152600401620000e3906200039e565b60405180910390fd5b6001600160a01b038116620001155760405162461bcd60e51b8152600401620000e39062000374565b600580546001600160a01b0319166001600160a01b038516179055600682905562000140816200019f565b50505062000438565b3390565b600180546001600160a01b038381166001600160a01b0319831681179093556040519116919082907f8be0079c531659141344cd1fd0a4f28419497f9722a3daafe3b4186f6b6457e090600090a35050565b620001a962000149565b6001600160a01b0316620001bc6200021c565b6001600160a01b031614620001e55760405162461bcd60e51b8152600401620000e390620003c6565b6001600160a01b0381166200020e5760405162461bcd60e51b8152600401620000e3906200032e565b62000219816200014d565b50565b6001546001600160a01b031690565b8280546200023990620003fb565b90600052602060002090601f0160209004810192826200025d5760008555620002a8565b82601f106200027857805160ff1916838001178555620002a8565b82800160010185558215620002a8579182015b82811115620002a85782518255916020019190600101906200028b565b50620002b6929150620002ba565b5090565b5b80821115620002b65760008155600101620002bb565b80516001600160a01b0381168114620002e957600080fd5b919050565b60008060006060848603121562000303578283fd5b6200030e84620002d1565b9250602084015191506200032560408501620002d1565b90509250925092565b60208082526026908201527f4f776e61626c653a206e6577206f776e657220697320746865207a65726f206160408201526564647265737360d01b606082015260800190565b60208082526010908201526f04f574e45525f43414e5f545f42455f360841b604082015260600190565b6020808252600e908201526d04445565f43414e5f545f42455f360941b604082015260600190565b6020808252818101527f4f776e61626c653a2063616c6c6572206973206e6f7420746865206f776e6572604082015260600190565b6002810460018216806200041057607f821691505b602082108114156200043257634e487b7160e01b600052602260045260246000fd5b50919050565b61191b80620004486000396000f3fe6080604052600436106100ec5760003560e01c806391cca3db1161008a578063e086e5ec11610059578063e086e5ec14610250578063e7cd4a0414610265578063f2fde38b14610285578063ff6e2c87146102a5576100f3565b806391cca3db146101e457806395d89b41146101f9578063d477f05f1461020e578063ddca3f431461022e576100f3565b806369fe0e2d116100c657806369fe0e2d146101605780636f9170f614610180578063715018a6146101ad5780638da5cb5b146101c2576100f3565b806306fdde03146100f55780630d4717b8146101205780632042e5c214610140576100f3565b366100f357005b005b34801561010157600080fd5b5061010a6102b8565b6040516101179190611491565b60405180910390f35b34801561012c57600080fd5b506100f361013b3660046112ac565b610346565b34801561014c57600080fd5b506100f361015b3660046112ac565b61045e565b34801561016c57600080fd5b506100f361017b3660046113a5565b6104f8565b34801561018c57600080fd5b506101a061019b3660046112ac565b61056b565b6040516101179190611486565b3480156101b957600080fd5b506100f3610580565b3480156101ce57600080fd5b506101d76105cb565b6040516101179190611401565b3480156101f057600080fd5b506101d76105da565b34801561020557600080fd5b5061010a6105e9565b34801561021a57600080fd5b506100f36102293660046112ac565b6105f6565b34801561023a57600080fd5b506102436106a6565b60405161011791906117f7565b34801561025c57600080fd5b506100f36106ac565b34801561027157600080fd5b506100f36102803660046112ac565b61072c565b34801561029157600080fd5b506100f36102a03660046112ac565b6107be565b6100f36102b33660046112c6565b61082f565b600280546102c590611886565b80601f01602080910402602001604051908101604052809291908181526020018280546102f190611886565b801561033e5780601f106103135761010080835404028352916020019161033e565b820191906000526020600020905b81548152906001019060200180831161032157829003601f168201915b505050505081565b61034e610eaf565b6001600160a01b031661035f6105cb565b6001600160a01b03161461038e5760405162461bcd60e51b81526004016103859061164d565b60405180910390fd5b6040516370a0823160e01b81526000906001600160a01b038316906370a08231906103bd903090600401611401565b60206040518083038186803b1580156103d557600080fd5b505afa1580156103e9573d6000803e3d6000fd5b505050506040513d601f19601f8201168201806040525081019061040d91906113bd565b90506104218261041b6105cb565b83610eb3565b7f7bf0873174a9cc6b28e039b52e74903dd59d650205f32748e3c3dd6b9918ea87828260405161045292919061146d565b60405180910390a15050565b610466610eaf565b6001600160a01b03166104776105cb565b6001600160a01b03161461049d5760405162461bcd60e51b81526004016103859061164d565b6001600160a01b03811660009081526004602052604090819020805460ff19169055517f1e17ee0599b7c09bb1d0ff1e8086007909da8bfba5c7d18319cb558e66db37ee906104ed908390611401565b60405180910390a150565b610500610eaf565b6001600160a01b03166105116105cb565b6001600160a01b0316146105375760405162461bcd60e51b81526004016103859061164d565b60068190556040517e172ddfc5ae88d08b3de01a5a187667c37a5a53989e8c175055cb6c993792a7906104ed9083906117f7565b60046020526000908152604090205460ff1681565b610588610eaf565b6001600160a01b03166105996105cb565b6001600160a01b0316146105bf5760405162461bcd60e51b81526004016103859061164d565b6105c96000610fa0565b565b6001546001600160a01b031690565b6005546001600160a01b031681565b600380546102c590611886565b6105fe610eaf565b6001600160a01b031661060f6105cb565b6001600160a01b0316146106355760405162461bcd60e51b81526004016103859061164d565b6001600160a01b03811661065b5760405162461bcd60e51b815260040161038590611745565b600580546001600160a01b0319166001600160a01b0383161790556040517f8daa6bb00de042a7d51816fcee4a3d5c1e91a2128fd64fa1a9a38afa0d26beb5906104ed908390611401565b60065481565b6106b4610eaf565b6001600160a01b03166106c56105cb565b6001600160a01b0316146106eb5760405162461bcd60e51b81526004016103859061164d565b476106fd6106f76105cb565b82610ff2565b7f94effa14ea3a1ef396fa2fd829336d1597f1d76b548c26bfa2332869706638af816040516104ed91906117f7565b610734610eaf565b6001600160a01b03166107456105cb565b6001600160a01b03161461076b5760405162461bcd60e51b81526004016103859061164d565b6001600160a01b03811660009081526004602052604090819020805460ff19166001179055517ff8d5f40934646cedded2cab1b5960f020db583f154fabcf831277b87d1803d13906104ed908390611401565b6107c6610eaf565b6001600160a01b03166107d76105cb565b6001600160a01b0316146107fd5760405162461bcd60e51b81526004016103859061164d565b6001600160a01b0381166108235760405162461bcd60e51b815260040161038590611526565b61082c81610fa0565b50565b81428110156108505760405162461bcd60e51b8152600401610385906116b2565b600260005414156108735760405162461bcd60e51b8152600401610385906117c0565b600260009081556001600160a01b03881681526004602052604090205460ff166108af5760405162461bcd60e51b815260040161038590611682565b6001600160a01b0389166108d55760405162461bcd60e51b8152600401610385906116d3565b81610905576001600160a01b0388166109005760405162461bcd60e51b81526004016103859061156c565b61092c565b6001600160a01b0388161561092c5760405162461bcd60e51b8152600401610385906114fb565b60006001600160a01b038a1673eeeeeeeeeeeeeeeeeeeeeeeeeeeeeeeeeeeeeeee14610a93576040516370a0823160e01b81526000906001600160a01b038c16906370a0823190610981903090600401611401565b60206040518083038186803b15801561099957600080fd5b505afa1580156109ad573d6000803e3d6000fd5b505050506040513d601f19601f820116820180604052508101906109d191906113bd565b90506109df8b33308b611084565b6040516370a0823160e01b81526000906001600160a01b038d16906370a0823190610a0e903090600401611401565b60206040518083038186803b158015610a2657600080fd5b505afa158015610a3a573d6000803e3d6000fd5b505050506040513d601f19601f82011682018060405250810190610a5e91906113bd565b9050610a6a8183611174565b925060008311610a8c5760405162461bcd60e51b815260040161038590611606565b5050610a96565b50345b600080600654118015610ab357506005546001600160a01b031615155b15610ae257610adf670de0b6b3a7640000610ad96006548561118790919063ffffffff16565b90611193565b90505b6000610aee8383611174565b9050610afb8c8b8361119f565b6000600654118015610b1757506005546001600160a01b031615155b8015610b4057506001600160a01b038c1673eeeeeeeeeeeeeeeeeeeeeeeeeeeeeeeeeeeeeeee14155b15610b6257600554610b5d908d906001600160a01b031684610eb3565b610bc1565b6000600654118015610b7e57506005546001600160a01b031615155b8015610ba657506001600160a01b038c1673eeeeeeeeeeeeeeeeeeeeeeeeeeeeeeeeeeeeeeee145b15610bc157600554610bc1906001600160a01b031683610ff2565b600085610c72576001600160a01b038c1673eeeeeeeeeeeeeeeeeeeeeeeeeeeeeeeeeeeeeeee14610c6d576040516370a0823160e01b81526001600160a01b038d16906370a0823190610c18903090600401611401565b60206040518083038186803b158015610c3057600080fd5b505afa158015610c44573d6000803e3d6000fd5b505050506040513d601f19601f82011682018060405250810190610c6891906113bd565b610c6f565b475b90505b60006001600160a01b03808d16908f1673eeeeeeeeeeeeeeeeeeeeeeeeeeeeeeeeeeeeeeee14610ca3576000610ca5565b835b8b8b604051610cb59291906113d5565b60006040518083038185875af1925050503d8060008114610cf2576040519150601f19603f3d011682016040523d82523d6000602084013e610cf7565b606091505b50509050600081610d1a5760405162461bcd60e51b8152600401610385906115cf565b87610e5d576001600160a01b038e1673eeeeeeeeeeeeeeeeeeeeeeeeeeeeeeeeeeeeeeee14610dce57610dc9838f6001600160a01b03166370a08231306040518263ffffffff1660e01b8152600401610d739190611401565b60206040518083038186803b158015610d8b57600080fd5b505afa158015610d9f573d6000803e3d6000fd5b505050506040513d601f19601f82011682018060405250810190610dc391906113bd565b90611174565b610dd8565b610dd84784611174565b90506001600160a01b038e1673eeeeeeeeeeeeeeeeeeeeeeeeeeeeeeeeeeeeeeee1415610e0e57610e093382610ff2565b610e19565b610e198e3383610eb3565b7fcd3829a3813dc3cdd188fd3d01dcf3268c16be2fdd2dd21d0665418816e460628f8f338f85604051610e50959493929190611415565b60405180910390a1610e99565b7f34d0a8e5b6aeb8af74211e98cacf797d309f5359087a7ef68c5573e2033428ba8f338e604051610e9093929190611449565b60405180910390a15b5050600160005550505050505050505050505050565b3390565b600080846001600160a01b031663a9059cbb8585604051602401610ed892919061146d565b6040516020818303038152906040529060e01b6020820180516001600160e01b038381831617835250505050604051610f1191906113e5565b6000604051808303816000865af19150503d8060008114610f4e576040519150601f19603f3d011682016040523d82523d6000602084013e610f53565b606091505b5091509150818015610f7d575080511580610f7d575080806020019051810190610f7d9190611389565b610f995760405162461bcd60e51b8152600401610385906114c4565b5050505050565b600180546001600160a01b038381166001600160a01b0319831681179093556040519116919082907f8be0079c531659141344cd1fd0a4f28419497f9722a3daafe3b4186f6b6457e090600090a35050565b604080516000808252602082019092526001600160a01b03841690839060405161101c91906113e5565b60006040518083038185875af1925050503d8060008114611059576040519150601f19603f3d011682016040523d82523d6000602084013e61105e565b606091505b505090508061107f5760405162461bcd60e51b815260040161038590611702565b505050565b600080856001600160a01b03166323b872dd8686866040516024016110ab93929190611449565b6040516020818303038152906040529060e01b6020820180516001600160e01b0383818316178352505050506040516110e491906113e5565b6000604051808303816000865af19150503d8060008114611121576040519150601f19603f3d011682016040523d82523d6000602084013e611126565b606091505b50915091508180156111505750805115806111505750808060200190518101906111509190611389565b61116c5760405162461bcd60e51b81526004016103859061177c565b505050505050565b6000611180828461183f565b9392505050565b60006111808284611820565b60006111808284611800565b600080846001600160a01b031663095ea7b385856040516024016111c492919061146d565b6040516020818303038152906040529060e01b6020820180516001600160e01b0383818316178352505050506040516111fd91906113e5565b6000604051808303816000865af19150503d806000811461123a576040519150601f19603f3d011682016040523d82523d6000602084013e61123f565b606091505b50915091508180156112695750805115806112695750808060200190518101906112699190611389565b610f995760405162461bcd60e51b815260040161038590611598565b80356001600160a01b038116811461129c57600080fd5b919050565b803561129c816118d7565b6000602082840312156112bd578081fd5b61118082611285565b60008060008060008060008060e0898b0312156112e1578384fd5b6112ea89611285565b97506112f860208a01611285565b965061130660408a01611285565b955060608901359450608089013567ffffffffffffffff80821115611329578586fd5b818b0191508b601f83011261133c578586fd5b81358181111561134a578687fd5b8c602082850101111561135b578687fd5b60208301965080955050505060a0890135915061137a60c08a016112a1565b90509295985092959890939650565b60006020828403121561139a578081fd5b8151611180816118d7565b6000602082840312156113b6578081fd5b5035919050565b6000602082840312156113ce578081fd5b5051919050565b6000828483379101908152919050565b600082516113f7818460208701611856565b9190910192915050565b6001600160a01b0391909116815260200190565b6001600160a01b03958616815293851660208501529190931660408301526060820192909252608081019190915260a00190565b6001600160a01b039384168152919092166020820152604081019190915260600190565b6001600160a01b03929092168252602082015260400190565b901515815260200190565b60006020825282518060208401526114b0816040850160208701611856565b601f01601f19169190910160400192915050565b6020808252601f908201527f5472616e7366657248656c7065723a205452414e534645525f4641494c454400604082015260600190565b6020808252601190820152700544f544f4b454e5f4d5553545f42455f3607c1b604082015260600190565b60208082526026908201527f4f776e61626c653a206e6577206f776e657220697320746865207a65726f206160408201526564647265737360d01b606082015260800190565b6020808252601290820152710544f544f4b454e5f43414e5f545f42455f360741b604082015260600190565b6020808252601e908201527f5472616e7366657248656c7065723a20415050524f56455f4641494c45440000604082015260600190565b6020808252601e908201527f45585445524e414c5f535741505f455845435554494f4e5f4641494c45440000604082015260600190565b60208082526027908201527f4e4f5f46524f4d5f544f4b454e5f5452414e534645525f544f5f544849535f4360408201526613d395149050d560ca1b606082015260800190565b6020808252818101527f4f776e61626c653a2063616c6c6572206973206e6f7420746865206f776e6572604082015260600190565b6020808252601690820152751393d517d5d2125511531254d517d0d3d395149050d560521b604082015260600190565b6020808252600790820152661156141254915160ca1b604082015260600190565b602080825260159082015274046524f4d544f4b454e5f43414e545f545f42455f3605c1b604082015260600190565b60208082526023908201527f5472616e7366657248656c7065723a204554485f5452414e534645525f46414960408201526213115160ea1b606082015260800190565b60208082526018908201527f305f414444524553535f43414e5f545f42455f415f4445560000000000000000604082015260600190565b60208082526024908201527f5472616e7366657248656c7065723a205452414e534645525f46524f4d5f46416040820152631253115160e21b606082015260800190565b6020808252601f908201527f5265656e7472616e637947756172643a207265656e7472616e742063616c6c00604082015260600190565b90815260200190565b60008261181b57634e487b7160e01b81526012600452602481fd5b500490565b600081600019048311821515161561183a5761183a6118c1565b500290565b600082821015611851576118516118c1565b500390565b60005b83811015611871578181015183820152602001611859565b83811115611880576000848401525b50505050565b60028104600182168061189a57607f821691505b602082108114156118bb57634e487b7160e01b600052602260045260246000fd5b50919050565b634e487b7160e01b600052601160045260246000fd5b801515811461082c57600080fdfea2646970667358221220d3b25fe980df7b9e775a3337c693f393352a66dbe64ab48c3311eca846dbee3064736f6c63430008000033",
  "immutableReferences": {},
  "source": "// SPDX-License-Identifier: MIT\n\npragma solidity ^0.8.0;\n\nimport \"@openzeppelin/contracts/token/erc20/IERC20.sol\";\nimport \"@openzeppelin/contracts/access/Ownable.sol\";\nimport \"@openzeppelin/contracts/security/ReentrancyGuard.sol\";\nimport \"@openzeppelin/contracts/utils/math/SafeMath.sol\";\nimport \"./lib/TransferHelper.sol\";\n\n/// @notice Transaction excutor of Path\ncontract ExecutorOfPath is ReentrancyGuard, Ownable {\n    using SafeMath for uint256;\n\n    string public name;\n\n    string public symbol;\n\n    address constant ETH_ADDRESS = 0xEeeeeEeeeEeEeeEeEeEeeEEEeeeeEeeeeeeeEEeE;\n    mapping(address => bool) public isWhiteListed;\n\n    address public dev;\n\n    uint256 public fee; // wei\n\n    /// @notice Swap's log.\n    /// @param fromToken token's address.\n    /// @param toToken token's address.\n    /// @param sender Who swap\n    /// @param fromAmount Input amount.\n    /// @param returnAmount toToken's amount include fee amount. Not cut fee yet.\n    event Swap(\n        address fromToken,\n        address toToken,\n        address sender,\n        uint256 fromAmount,\n        uint256 returnAmount\n    );\n\n    event SwapCrossChain(address fromToken, address sender, uint256 fromAmount);\n\n    event AddWhiteList(address contractAddress);\n\n    event RemoveWhiteList(address contractAddr);\n\n    event SetFee(uint256 fee);\n\n    event WithdrawETH(uint256 balance);\n\n    event Withdtraw(address token, uint256 balance);\n\n    event SetDev(address _dev);\n\n    modifier noExpired(uint256 deadLine) {\n        require(deadLine >= block.timestamp, \"EXPIRED\");\n        _;\n    }\n\n    fallback() external payable {}\n\n    receive() external payable {}\n\n    constructor(\n        address _dev,\n        uint256 _fee,\n        address _owner\n    ) {\n        name = \"Excutor of PATH\";\n        symbol = \"EXCUTOR_v1\";\n        require(_dev != address(0), \"DEV_CAN_T_BE_0\");\n        require(_owner != address(0), \"OWNER_CAN_T_BE_0\");\n        dev = _dev;\n        fee = _fee;\n        transferOwnership(_owner);\n    }\n\n    function addWhiteList(address contractAddr) public onlyOwner {\n        isWhiteListed[contractAddr] = true;\n        emit AddWhiteList(contractAddr);\n    }\n\n    function removeWhiteList(address contractAddr) public onlyOwner {\n        isWhiteListed[contractAddr] = false;\n        emit RemoveWhiteList(contractAddr);\n    }\n\n    /// @notice Excute transactions. \n    /// @param fromToken token's address. \n    /// @param toToken token's address. 0\n    /// @param approveTarget contract's address which will excute calldata \n    /// @param callDataConcat calldata \n    /// @param deadLine Deadline revert\n    /// @param isCrossChain \n    function swap(\n        address fromToken,\n        address toToken,\n        address approveTarget,\n        uint256 fromTokenAmount,\n        bytes calldata callDataConcat,\n        uint256 deadLine,\n        bool isCrossChain\n    ) external payable noExpired(deadLine) nonReentrant {\n        require(isWhiteListed[approveTarget], \"NOT_WHITELIST_CONTRACT\"); // \n        require(fromToken != address(0), \"FROMTOKEN_CANT_T_BE_0\"); // 0\n        if (!isCrossChain) {\n            // \n            require(toToken != address(0), \"TOTOKEN_CAN_T_BE_0\");\n        } else {\n            // \n            require(toToken == address(0), \"TOTOKEN_MUST_BE_0\"); // totoken0\n        }\n        uint256 _inputAmount; // \n        /// @dev \n        if (fromToken != ETH_ADDRESS) {\n            uint256 _fromTokenBalanceOrigin = IERC20(fromToken).balanceOf(\n                address(this)\n            );\n            TransferHelper.safeTransferFrom(\n                fromToken,\n                msg.sender,\n                address(this),\n                fromTokenAmount\n            );\n            uint256 _fromTokenBalanceNew = IERC20(fromToken).balanceOf(\n                address(this)\n            );\n            _inputAmount = _fromTokenBalanceNew.sub(_fromTokenBalanceOrigin);\n            require(\n                _inputAmount > 0,\n                \"NO_FROM_TOKEN_TRANSFER_TO_THIS_CONTRACT\"\n            );\n        } else {\n            _inputAmount = msg.value;\n        }\n        uint256 feeAmount = 0; // \n        /// @dev \n        if (fee > 0 && dev != address(0)) {\n            feeAmount = _inputAmount.mul(fee).div(10**18);\n        }\n        uint256 fromAmount = _inputAmount.sub(feeAmount); // \n        TransferHelper.safeApprove(fromToken, approveTarget, fromAmount); // \n        /// @dev dev\n        if (fee > 0 && dev != address(0) && fromToken != ETH_ADDRESS) {\n            TransferHelper.safeTransfer(fromToken, dev, feeAmount);\n        } else if (fee > 0 && dev != address(0) && fromToken == ETH_ADDRESS) {\n            TransferHelper.safeTransferETH(dev, feeAmount);\n        }\n        uint256 _toTokenBalanceOrigin = 0; // \n        if (!isCrossChain) {\n            // totoken\n            _toTokenBalanceOrigin = toToken == ETH_ADDRESS\n                ? address(this).balance\n                : IERC20(toToken).balanceOf(address(this));\n        }\n        (bool success, ) = approveTarget.call{\n            value: fromToken == ETH_ADDRESS ? fromAmount : 0\n        }(callDataConcat);\n        uint256 returnAmt = 0;\n        require(success, \"EXTERNAL_SWAP_EXECUTION_FAILED\");\n        /// @dev \n        if (!isCrossChain) {\n            // \n            returnAmt = toToken == ETH_ADDRESS\n                ? address(this).balance.sub(_toTokenBalanceOrigin)\n                : IERC20(toToken).balanceOf(address(this)).sub(\n                    _toTokenBalanceOrigin\n                );\n            require(returnAmt >= 0, \"RETURN_AMOUNT_IS_0\");\n            if (toToken == ETH_ADDRESS) {\n                TransferHelper.safeTransferETH(msg.sender, returnAmt);\n            } else {\n                TransferHelper.safeTransfer(toToken, msg.sender, returnAmt);\n            }\n            emit Swap(\n                fromToken,\n                toToken,\n                msg.sender,\n                fromTokenAmount,\n                returnAmt\n            );\n        } else {\n            emit SwapCrossChain(fromToken, msg.sender, fromTokenAmount);\n        }\n    }\n\n    function setFee(uint256 _fee) external onlyOwner {\n        fee = _fee;\n        emit SetFee(_fee);\n    }\n\n    function withdrawETH() external onlyOwner {\n        uint256 balance = address(this).balance;\n        TransferHelper.safeTransferETH(owner(), balance);\n        emit WithdrawETH(balance);\n    }\n\n    function withdtraw(address token) external onlyOwner {\n        uint256 balance = IERC20(token).balanceOf(address(this));\n        TransferHelper.safeTransfer(token, owner(), balance);\n        emit Withdtraw(token, balance);\n    }\n\n    function setDev(address _dev) external onlyOwner {\n        require(_dev != address(0), \"0_ADDRESS_CAN_T_BE_A_DEV\");\n        dev = _dev;\n        emit SetDev(_dev);\n    }\n}\n",
  "sourcePath": "/Users/zhangleping/github.com/0xa8c81519/path-contracts/contracts/ExecutorOfPath.sol",
  "compiler": {
    "name": "solc",
    "version": "0.8.0+commit.c7dfd78e.Emscripten.clang"
  },
  "schemaVersion": "3.4.1",
  "updatedAt": "2021-10-13T08:33:37.538Z",
  "networkType": "ethereum",
  "devdoc": {
    "events": {
      "Swap(address,address,address,uint256,uint256)": {
        "params": {
          "fromAmount": "Input amount.",
          "fromToken": "token's address.",
          "returnAmount": "toToken's amount include fee amount. Not cut fee yet.",
          "sender": "Who swap",
          "toToken": "token's address."
        }
      }
    },
    "kind": "dev",
    "methods": {
      "owner()": {
        "details": "Returns the address of the current owner."
      },
      "renounceOwnership()": {
        "details": "Leaves the contract without owner. It will not be possible to call `onlyOwner` functions anymore. Can only be called by the current owner. NOTE: Renouncing ownership will leave the contract without an owner, thereby removing any functionality that is only available to the owner."
      },
      "swap(address,address,address,uint256,bytes,uint256,bool)": {
        "params": {
          "approveTarget": "contract's address which will excute calldata ",
          "callDataConcat": "calldata ",
          "deadLine": "Deadline revert",
          "fromToken": "token's address. ",
          "isCrossChain": "",
          "toToken": "token's address. 0"
        }
      },
      "transferOwnership(address)": {
        "details": "Transfers ownership of the contract to a new account (`newOwner`). Can only be called by the current owner."
      }
    },
    "version": 1
  },
  "userdoc": {
    "events": {
      "Swap(address,address,address,uint256,uint256)": {
        "notice": "Swap's log."
      }
    },
    "kind": "user",
    "methods": {
      "swap(address,address,address,uint256,bytes,uint256,bool)": {
        "notice": "Excute transactions. "
      }
    },
    "notice": "Transaction excutor of Path",
    "version": 1
  }
}