{
  "contractName": "GeneralPathProxy",
  "abi": [
    {
      "inputs": [
        {
          "internalType": "address",
          "name": "_dev",
          "type": "address"
        },
        {
          "internalType": "uint256",
          "name": "_fee",
          "type": "uint256"
        },
        {
          "internalType": "address",
          "name": "_owner",
          "type": "address"
        },
        {
          "internalType": "address",
          "name": "_factory",
          "type": "address"
        }
      ],
      "stateMutability": "nonpayable",
      "type": "constructor"
    },
    {
      "anonymous": false,
      "inputs": [
        {
          "indexed": false,
          "internalType": "address",
          "name": "contractAddress",
          "type": "address"
        }
      ],
      "name": "AddWhiteList",
      "type": "event"
    },
    {
      "anonymous": false,
      "inputs": [
        {
          "indexed": true,
          "internalType": "address",
          "name": "previousOwner",
          "type": "address"
        },
        {
          "indexed": true,
          "internalType": "address",
          "name": "newOwner",
          "type": "address"
        }
      ],
      "name": "OwnershipTransferred",
      "type": "event"
    },
    {
      "anonymous": false,
      "inputs": [
        {
          "indexed": false,
          "internalType": "address",
          "name": "contractAddr",
          "type": "address"
        }
      ],
      "name": "RemoveWhiteList",
      "type": "event"
    },
    {
      "anonymous": false,
      "inputs": [
        {
          "indexed": false,
          "internalType": "address",
          "name": "_dev",
          "type": "address"
        }
      ],
      "name": "SetDev",
      "type": "event"
    },
    {
      "anonymous": false,
      "inputs": [
        {
          "indexed": false,
          "internalType": "uint256",
          "name": "fee",
          "type": "uint256"
        }
      ],
      "name": "SetFee",
      "type": "event"
    },
    {
      "anonymous": false,
      "inputs": [
        {
          "indexed": false,
          "internalType": "address",
          "name": "fromToken",
          "type": "address"
        },
        {
          "indexed": false,
          "internalType": "address",
          "name": "toToken",
          "type": "address"
        },
        {
          "indexed": false,
          "internalType": "address",
          "name": "sender",
          "type": "address"
        },
        {
          "indexed": false,
          "internalType": "uint256",
          "name": "fromAmount",
          "type": "uint256"
        },
        {
          "indexed": false,
          "internalType": "uint256",
          "name": "returnAmount",
          "type": "uint256"
        }
      ],
      "name": "Swap",
      "type": "event"
    },
    {
      "anonymous": false,
      "inputs": [
        {
          "indexed": false,
          "internalType": "address",
          "name": "fromToken",
          "type": "address"
        },
        {
          "indexed": false,
          "internalType": "address",
          "name": "sender",
          "type": "address"
        },
        {
          "indexed": false,
          "internalType": "uint256",
          "name": "fromAmount",
          "type": "uint256"
        }
      ],
      "name": "SwapCrossChain",
      "type": "event"
    },
    {
      "anonymous": false,
      "inputs": [
        {
          "indexed": false,
          "internalType": "address",
          "name": "_fac",
          "type": "address"
        }
      ],
      "name": "TransferFactoryTo",
      "type": "event"
    },
    {
      "anonymous": false,
      "inputs": [
        {
          "indexed": false,
          "internalType": "uint256",
          "name": "balance",
          "type": "uint256"
        }
      ],
      "name": "WithdrawETH",
      "type": "event"
    },
    {
      "anonymous": false,
      "inputs": [
        {
          "indexed": false,
          "internalType": "address",
          "name": "token",
          "type": "address"
        },
        {
          "indexed": false,
          "internalType": "uint256",
          "name": "balance",
          "type": "uint256"
        }
      ],
      "name": "Withdtraw",
      "type": "event"
    },
    {
      "stateMutability": "payable",
      "type": "fallback",
      "payable": true
    },
    {
      "inputs": [],
      "name": "dev",
      "outputs": [
        {
          "internalType": "address",
          "name": "",
          "type": "address"
        }
      ],
      "stateMutability": "view",
      "type": "function",
      "constant": true
    },
    {
      "inputs": [],
      "name": "factory",
      "outputs": [
        {
          "internalType": "address",
          "name": "",
          "type": "address"
        }
      ],
      "stateMutability": "view",
      "type": "function",
      "constant": true
    },
    {
      "inputs": [],
      "name": "fee",
      "outputs": [
        {
          "internalType": "uint256",
          "name": "",
          "type": "uint256"
        }
      ],
      "stateMutability": "view",
      "type": "function",
      "constant": true
    },
    {
      "inputs": [
        {
          "internalType": "address",
          "name": "",
          "type": "address"
        }
      ],
      "name": "isWhiteListed",
      "outputs": [
        {
          "internalType": "bool",
          "name": "",
          "type": "bool"
        }
      ],
      "stateMutability": "view",
      "type": "function",
      "constant": true
    },
    {
      "inputs": [],
      "name": "name",
      "outputs": [
        {
          "internalType": "string",
          "name": "",
          "type": "string"
        }
      ],
      "stateMutability": "view",
      "type": "function",
      "constant": true
    },
    {
      "inputs": [],
      "name": "owner",
      "outputs": [
        {
          "internalType": "address",
          "name": "",
          "type": "address"
        }
      ],
      "stateMutability": "view",
      "type": "function",
      "constant": true
    },
    {
      "inputs": [],
      "name": "renounceOwnership",
      "outputs": [],
      "stateMutability": "nonpayable",
      "type": "function"
    },
    {
      "inputs": [],
      "name": "symbol",
      "outputs": [
        {
          "internalType": "string",
          "name": "",
          "type": "string"
        }
      ],
      "stateMutability": "view",
      "type": "function",
      "constant": true
    },
    {
      "inputs": [
        {
          "internalType": "address",
          "name": "newOwner",
          "type": "address"
        }
      ],
      "name": "transferOwnership",
      "outputs": [],
      "stateMutability": "nonpayable",
      "type": "function"
    },
    {
      "stateMutability": "payable",
      "type": "receive",
      "payable": true
    },
    {
      "inputs": [
        {
          "internalType": "address",
          "name": "contractAddr",
          "type": "address"
        }
      ],
      "name": "addWhiteList",
      "outputs": [],
      "stateMutability": "nonpayable",
      "type": "function"
    },
    {
      "inputs": [
        {
          "internalType": "address",
          "name": "contractAddr",
          "type": "address"
        }
      ],
      "name": "removeWhiteList",
      "outputs": [],
      "stateMutability": "nonpayable",
      "type": "function"
    },
    {
      "inputs": [
        {
          "internalType": "address",
          "name": "fromToken",
          "type": "address"
        },
        {
          "internalType": "address",
          "name": "toToken",
          "type": "address"
        },
        {
          "internalType": "address",
          "name": "approveTarget",
          "type": "address"
        },
        {
          "internalType": "uint256",
          "name": "fromTokenAmount",
          "type": "uint256"
        },
        {
          "internalType": "bytes",
          "name": "callDataConcat",
          "type": "bytes"
        },
        {
          "internalType": "uint256",
          "name": "deadLine",
          "type": "uint256"
        },
        {
          "internalType": "bool",
          "name": "isCrossChain",
          "type": "bool"
        }
      ],
      "name": "swap",
      "outputs": [],
      "stateMutability": "payable",
      "type": "function",
      "payable": true
    },
    {
      "inputs": [
        {
          "internalType": "uint256",
          "name": "_fee",
          "type": "uint256"
        }
      ],
      "name": "setFee",
      "outputs": [],
      "stateMutability": "nonpayable",
      "type": "function"
    },
    {
      "inputs": [],
      "name": "withdrawETH",
      "outputs": [],
      "stateMutability": "nonpayable",
      "type": "function"
    },
    {
      "inputs": [
        {
          "internalType": "address",
          "name": "token",
          "type": "address"
        }
      ],
      "name": "withdraw",
      "outputs": [],
      "stateMutability": "nonpayable",
      "type": "function"
    },
    {
      "inputs": [
        {
          "internalType": "address",
          "name": "_dev",
          "type": "address"
        }
      ],
      "name": "setDev",
      "outputs": [],
      "stateMutability": "nonpayable",
      "type": "function"
    },
    {
      "inputs": [
        {
          "internalType": "address",
          "name": "_fac",
          "type": "address"
        }
      ],
      "name": "transferFactoryTo",
      "outputs": [],
      "stateMutability": "nonpayable",
      "type": "function"
    }
  ],
  "bytecode": "0x60806040523480156200001157600080fd5b50604051620020723803806200207283398101604081905262000034916200032e565b60016000556200004d6200004762000189565b6200018d565b6040805180820190915260128082527147656e6572616c20506174682050726f787960701b602090920191825262000088916002916200026b565b506040805180820190915260088082526750524f58595f563160c01b6020909201918252620000ba916003916200026b565b506001600160a01b038416620000ed5760405162461bcd60e51b8152600401620000e490620003f1565b60405180910390fd5b6001600160a01b038216620001165760405162461bcd60e51b8152600401620000e490620003c7565b6001600160a01b0381166200013f5760405162461bcd60e51b8152600401620000e4906200044e565b600580546001600160a01b038087166001600160a01b031992831617909255600685905560078054928416929091169190911790556200017f82620001df565b50505050620004b7565b3390565b600180546001600160a01b038381166001600160a01b0319831681179093556040519116919082907f8be0079c531659141344cd1fd0a4f28419497f9722a3daafe3b4186f6b6457e090600090a35050565b620001e962000189565b6001600160a01b0316620001fc6200025c565b6001600160a01b031614620002255760405162461bcd60e51b8152600401620000e49062000419565b6001600160a01b0381166200024e5760405162461bcd60e51b8152600401620000e49062000381565b62000259816200018d565b50565b6001546001600160a01b031690565b82805462000279906200047a565b90600052602060002090601f0160209004810192826200029d5760008555620002e8565b82601f10620002b857805160ff1916838001178555620002e8565b82800160010185558215620002e8579182015b82811115620002e8578251825591602001919060010190620002cb565b50620002f6929150620002fa565b5090565b5b80821115620002f65760008155600101620002fb565b80516001600160a01b03811681146200032957600080fd5b919050565b6000806000806080858703121562000344578384fd5b6200034f8562000311565b935060208501519250620003666040860162000311565b9150620003766060860162000311565b905092959194509250565b60208082526026908201527f4f776e61626c653a206e6577206f776e657220697320746865207a65726f206160408201526564647265737360d01b606082015260800190565b60208082526010908201526f04f574e45525f43414e5f545f42455f360841b604082015260600190565b6020808252600e908201526d04445565f43414e5f545f42455f360941b604082015260600190565b6020808252818101527f4f776e61626c653a2063616c6c6572206973206e6f7420746865206f776e6572604082015260600190565b6020808252601290820152710464143544f52595f43414e5f545f42455f360741b604082015260600190565b6002810460018216806200048f57607f821691505b60208210811415620004b157634e487b7160e01b600052602260045260246000fd5b50919050565b611bab80620004c76000396000f3fe6080604052600436106101025760003560e01c806395d89b4111610095578063ddca3f4311610064578063ddca3f4314610279578063e086e5ec1461029b578063e7cd4a04146102b0578063f2fde38b146102d0578063ff6e2c87146102f057610109565b806395d89b411461020f578063c45a015514610224578063d477f05f14610239578063dbb0a4e31461025957610109565b80636f9170f6116100d15780636f9170f614610196578063715018a6146101c35780638da5cb5b146101d857806391cca3db146101fa57610109565b806306fdde031461010b5780632042e5c21461013657806351cff8d91461015657806369fe0e2d1461017657610109565b3661010957005b005b34801561011757600080fd5b50610120610303565b60405161012d919061161a565b60405180910390f35b34801561014257600080fd5b50610109610151366004611435565b610391565b34801561016257600080fd5b50610109610171366004611435565b610482565b34801561018257600080fd5b5061010961019136600461152e565b6105b7565b3480156101a257600080fd5b506101b66101b1366004611435565b610615565b60405161012d919061160f565b3480156101cf57600080fd5b5061010961062a565b3480156101e457600080fd5b506101ed610675565b60405161012d919061158a565b34801561020657600080fd5b506101ed610684565b34801561021b57600080fd5b50610120610693565b34801561023057600080fd5b506101ed6106a0565b34801561024557600080fd5b50610109610254366004611435565b6106af565b34801561026557600080fd5b50610109610274366004611435565b61074a565b34801561028557600080fd5b5061028e6107e5565b60405161012d9190611a87565b3480156102a757600080fd5b506101096107eb565b3480156102bc57600080fd5b506101096102cb366004611435565b61086b565b3480156102dc57600080fd5b506101096102eb366004611435565b610947565b6101096102fe36600461144f565b6109b8565b6002805461031090611b16565b80601f016020809104026020016040519081016040528092919081815260200182805461033c90611b16565b80156103895780601f1061035e57610100808354040283529160200191610389565b820191906000526020600020905b81548152906001019060200180831161036c57829003601f168201915b505050505081565b6007546001600160a01b031633146103c45760405162461bcd60e51b81526004016103bb906117bb565b60405180910390fd5b6001600160a01b0381166103ea5760405162461bcd60e51b81526004016103bb906119a9565b6001600160a01b03811660009081526004602052604090205460ff1615156001146104275760405162461bcd60e51b81526004016103bb90611684565b6001600160a01b03811660009081526004602052604090819020805460ff19169055517f1e17ee0599b7c09bb1d0ff1e8086007909da8bfba5c7d18319cb558e66db37ee9061047790839061158a565b60405180910390a150565b61048a611038565b6001600160a01b031661049b610675565b6001600160a01b0316146104c15760405162461bcd60e51b81526004016103bb90611828565b6001600160a01b0381166104e75760405162461bcd60e51b81526004016103bb9061188d565b6040516370a0823160e01b81526000906001600160a01b038316906370a082319061051690309060040161158a565b60206040518083038186803b15801561052e57600080fd5b505afa158015610542573d6000803e3d6000fd5b505050506040513d601f19601f820116820180604052508101906105669190611546565b905061057a82610574610675565b8361103c565b7f7bf0873174a9cc6b28e039b52e74903dd59d650205f32748e3c3dd6b9918ea8782826040516105ab9291906115f6565b60405180910390a15050565b6007546001600160a01b031633146105e15760405162461bcd60e51b81526004016103bb906117bb565b60068190556040517e172ddfc5ae88d08b3de01a5a187667c37a5a53989e8c175055cb6c993792a790610477908390611a87565b60046020526000908152604090205460ff1681565b610632611038565b6001600160a01b0316610643610675565b6001600160a01b0316146106695760405162461bcd60e51b81526004016103bb90611828565b6106736000611129565b565b6001546001600160a01b031690565b6005546001600160a01b031681565b6003805461031090611b16565b6007546001600160a01b031681565b6007546001600160a01b031633146106d95760405162461bcd60e51b81526004016103bb906117bb565b6001600160a01b0381166106ff5760405162461bcd60e51b81526004016103bb906119d5565b600580546001600160a01b0319166001600160a01b0383161790556040517f8daa6bb00de042a7d51816fcee4a3d5c1e91a2128fd64fa1a9a38afa0d26beb59061047790839061158a565b6007546001600160a01b031633146107745760405162461bcd60e51b81526004016103bb906117bb565b6001600160a01b03811661079a5760405162461bcd60e51b81526004016103bb906118ba565b600780546001600160a01b0319166001600160a01b0383161790556040517fd01274d62c4192b5ba600651cb7a69f233c480d88b57471b6347633db7b2ce459061047790839061158a565b60065481565b6107f3611038565b6001600160a01b0316610804610675565b6001600160a01b03161461082a5760405162461bcd60e51b81526004016103bb90611828565b4761083c610836610675565b8261117b565b7f94effa14ea3a1ef396fa2fd829336d1597f1d76b548c26bfa2332869706638af816040516104779190611a87565b6007546001600160a01b031633146108955760405162461bcd60e51b81526004016103bb906117bb565b6001600160a01b0381166108bb5760405162461bcd60e51b81526004016103bb906119a9565b6001600160a01b03811660009081526004602052604090205460ff16156108f45760405162461bcd60e51b81526004016103bb906118e6565b6001600160a01b03811660009081526004602052604090819020805460ff19166001179055517ff8d5f40934646cedded2cab1b5960f020db583f154fabcf831277b87d1803d139061047790839061158a565b61094f611038565b6001600160a01b0316610960610675565b6001600160a01b0316146109865760405162461bcd60e51b81526004016103bb90611828565b6001600160a01b0381166109ac5760405162461bcd60e51b81526004016103bb906116db565b6109b581611129565b50565b81428110156109d95760405162461bcd60e51b81526004016103bb90611916565b600260005414156109fc5760405162461bcd60e51b81526004016103bb90611a50565b600260009081556001600160a01b03881681526004602052604090205460ff16610a385760405162461bcd60e51b81526004016103bb9061185d565b6001600160a01b038916610a5e5760405162461bcd60e51b81526004016103bb90611937565b81610a8e576001600160a01b038816610a895760405162461bcd60e51b81526004016103bb90611721565b610ab5565b6001600160a01b03881615610ab55760405162461bcd60e51b81526004016103bb906116b0565b60006001600160a01b038a1673eeeeeeeeeeeeeeeeeeeeeeeeeeeeeeeeeeeeeeee14610c1c576040516370a0823160e01b81526000906001600160a01b038c16906370a0823190610b0a90309060040161158a565b60206040518083038186803b158015610b2257600080fd5b505afa158015610b36573d6000803e3d6000fd5b505050506040513d601f19601f82011682018060405250810190610b5a9190611546565b9050610b688b33308b61120d565b6040516370a0823160e01b81526000906001600160a01b038d16906370a0823190610b9790309060040161158a565b60206040518083038186803b158015610baf57600080fd5b505afa158015610bc3573d6000803e3d6000fd5b505050506040513d601f19601f82011682018060405250810190610be79190611546565b9050610bf381836112fd565b925060008311610c155760405162461bcd60e51b81526004016103bb906117e1565b5050610c1f565b50345b600080600654118015610c3c57506005546001600160a01b031615155b15610c6b57610c68670de0b6b3a7640000610c626006548561131090919063ffffffff16565b9061131c565b90505b6000610c7783836112fd565b9050610c848c8b83611328565b6000600654118015610ca057506005546001600160a01b031615155b8015610cc957506001600160a01b038c1673eeeeeeeeeeeeeeeeeeeeeeeeeeeeeeeeeeeeeeee14155b15610ceb57600554610ce6908d906001600160a01b03168461103c565b610d4a565b6000600654118015610d0757506005546001600160a01b031615155b8015610d2f57506001600160a01b038c1673eeeeeeeeeeeeeeeeeeeeeeeeeeeeeeeeeeeeeeee145b15610d4a57600554610d4a906001600160a01b03168361117b565b600085610dfb576001600160a01b038c1673eeeeeeeeeeeeeeeeeeeeeeeeeeeeeeeeeeeeeeee14610df6576040516370a0823160e01b81526001600160a01b038d16906370a0823190610da190309060040161158a565b60206040518083038186803b158015610db957600080fd5b505afa158015610dcd573d6000803e3d6000fd5b505050506040513d601f19601f82011682018060405250810190610df19190611546565b610df8565b475b90505b60006001600160a01b03808d16908f1673eeeeeeeeeeeeeeeeeeeeeeeeeeeeeeeeeeeeeeee14610e2c576000610e2e565b835b8b8b604051610e3e92919061155e565b60006040518083038185875af1925050503d8060008114610e7b576040519150601f19603f3d011682016040523d82523d6000602084013e610e80565b606091505b50509050600081610ea35760405162461bcd60e51b81526004016103bb90611784565b87610fe6576001600160a01b038e1673eeeeeeeeeeeeeeeeeeeeeeeeeeeeeeeeeeeeeeee14610f5757610f52838f6001600160a01b03166370a08231306040518263ffffffff1660e01b8152600401610efc919061158a565b60206040518083038186803b158015610f1457600080fd5b505afa158015610f28573d6000803e3d6000fd5b505050506040513d601f19601f82011682018060405250810190610f4c9190611546565b906112fd565b610f61565b610f6147846112fd565b90506001600160a01b038e1673eeeeeeeeeeeeeeeeeeeeeeeeeeeeeeeeeeeeeeee1415610f9757610f92338261117b565b610fa2565b610fa28e338361103c565b7fcd3829a3813dc3cdd188fd3d01dcf3268c16be2fdd2dd21d0665418816e460628f8f338f85604051610fd995949392919061159e565b60405180910390a1611022565b7f34d0a8e5b6aeb8af74211e98cacf797d309f5359087a7ef68c5573e2033428ba8f338e604051611019939291906115d2565b60405180910390a15b5050600160005550505050505050505050505050565b3390565b600080846001600160a01b031663a9059cbb85856040516024016110619291906115f6565b6040516020818303038152906040529060e01b6020820180516001600160e01b03838183161783525050505060405161109a919061156e565b6000604051808303816000865af19150503d80600081146110d7576040519150601f19603f3d011682016040523d82523d6000602084013e6110dc565b606091505b50915091508180156111065750805115806111065750808060200190518101906111069190611512565b6111225760405162461bcd60e51b81526004016103bb9061164d565b5050505050565b600180546001600160a01b038381166001600160a01b0319831681179093556040519116919082907f8be0079c531659141344cd1fd0a4f28419497f9722a3daafe3b4186f6b6457e090600090a35050565b604080516000808252602082019092526001600160a01b0384169083906040516111a5919061156e565b60006040518083038185875af1925050503d80600081146111e2576040519150601f19603f3d011682016040523d82523d6000602084013e6111e7565b606091505b50509050806112085760405162461bcd60e51b81526004016103bb90611966565b505050565b600080856001600160a01b03166323b872dd868686604051602401611234939291906115d2565b6040516020818303038152906040529060e01b6020820180516001600160e01b03838183161783525050505060405161126d919061156e565b6000604051808303816000865af19150503d80600081146112aa576040519150601f19603f3d011682016040523d82523d6000602084013e6112af565b606091505b50915091508180156112d95750805115806112d95750808060200190518101906112d99190611512565b6112f55760405162461bcd60e51b81526004016103bb90611a0c565b505050505050565b60006113098284611acf565b9392505050565b60006113098284611ab0565b60006113098284611a90565b600080846001600160a01b031663095ea7b3858560405160240161134d9291906115f6565b6040516020818303038152906040529060e01b6020820180516001600160e01b038381831617835250505050604051611386919061156e565b6000604051808303816000865af19150503d80600081146113c3576040519150601f19603f3d011682016040523d82523d6000602084013e6113c8565b606091505b50915091508180156113f25750805115806113f25750808060200190518101906113f29190611512565b6111225760405162461bcd60e51b81526004016103bb9061174d565b80356001600160a01b038116811461142557600080fd5b919050565b803561142581611b67565b600060208284031215611446578081fd5b6113098261140e565b60008060008060008060008060e0898b03121561146a578384fd5b6114738961140e565b975061148160208a0161140e565b965061148f60408a0161140e565b955060608901359450608089013567ffffffffffffffff808211156114b2578586fd5b818b0191508b601f8301126114c5578586fd5b8135818111156114d3578687fd5b8c60208285010111156114e4578687fd5b60208301965080955050505060a0890135915061150360c08a0161142a565b90509295985092959890939650565b600060208284031215611523578081fd5b815161130981611b67565b60006020828403121561153f578081fd5b5035919050565b600060208284031215611557578081fd5b5051919050565b6000828483379101908152919050565b60008251611580818460208701611ae6565b9190910192915050565b6001600160a01b0391909116815260200190565b6001600160a01b03958616815293851660208501529190931660408301526060820192909252608081019190915260a00190565b6001600160a01b039384168152919092166020820152604081019190915260600190565b6001600160a01b03929092168252602082015260400190565b901515815260200190565b6000602082528251806020840152611639816040850160208701611ae6565b601f01601f19169190910160400192915050565b6020808252601f908201527f5472616e7366657248656c7065723a205452414e534645525f4641494c454400604082015260600190565b602080825260129082015271414444524553535f4e4f545f45584953545360701b604082015260600190565b6020808252601190820152700544f544f4b454e5f4d5553545f42455f3607c1b604082015260600190565b60208082526026908201527f4f776e61626c653a206e6577206f776e657220697320746865207a65726f206160408201526564647265737360d01b606082015260800190565b6020808252601290820152710544f544f4b454e5f43414e5f545f42455f360741b604082015260600190565b6020808252601e908201527f5472616e7366657248656c7065723a20415050524f56455f4641494c45440000604082015260600190565b6020808252601e908201527f45585445524e414c5f535741505f455845435554494f4e5f4641494c45440000604082015260600190565b6020808252600c908201526b4f4e4c595f464143544f525960a01b604082015260600190565b60208082526027908201527f4e4f5f46524f4d5f544f4b454e5f5452414e534645525f544f5f544849535f4360408201526613d395149050d560ca1b606082015260800190565b6020808252818101527f4f776e61626c653a2063616c6c6572206973206e6f7420746865206f776e6572604082015260600190565b6020808252601690820152751393d517d5d2125511531254d517d0d3d395149050d560521b604082015260600190565b6020808252601390820152720544f4b454e5f4d5553545f4e4f545f42455f3606c1b604082015260600190565b6020808252601290820152710464143544f52595f43414e5f545f42455f360741b604082015260600190565b602080825260169082015275414444524553535f414c52454144595f45584953545360501b604082015260600190565b6020808252600790820152661156141254915160ca1b604082015260600190565b602080825260159082015274046524f4d544f4b454e5f43414e545f545f42455f3605c1b604082015260600190565b60208082526023908201527f5472616e7366657248656c7065723a204554485f5452414e534645525f46414960408201526213115160ea1b606082015260800190565b6020808252601290820152710414444524553535f43414e5f545f42455f360741b604082015260600190565b60208082526018908201527f305f414444524553535f43414e5f545f42455f415f4445560000000000000000604082015260600190565b60208082526024908201527f5472616e7366657248656c7065723a205452414e534645525f46524f4d5f46416040820152631253115160e21b606082015260800190565b6020808252601f908201527f5265656e7472616e637947756172643a207265656e7472616e742063616c6c00604082015260600190565b90815260200190565b600082611aab57634e487b7160e01b81526012600452602481fd5b500490565b6000816000190483118215151615611aca57611aca611b51565b500290565b600082821015611ae157611ae1611b51565b500390565b60005b83811015611b01578181015183820152602001611ae9565b83811115611b10576000848401525b50505050565b600281046001821680611b2a57607f821691505b60208210811415611b4b57634e487b7160e01b600052602260045260246000fd5b50919050565b634e487b7160e01b600052601160045260246000fd5b80151581146109b557600080fdfea264697066735822122002b6e068244755f85b45ffa5459ae18bafa8432966792700f5ae227681f18fe164736f6c63430008000033",
  "immutableReferences": {},
  "source": "// SPDX-License-Identifier: MIT\n\npragma solidity ^0.8.0;\n\nimport \"@openzeppelin/contracts/token/erc20/IERC20.sol\";\nimport \"@openzeppelin/contracts/access/Ownable.sol\";\nimport \"@openzeppelin/contracts/security/ReentrancyGuard.sol\";\nimport \"@openzeppelin/contracts/utils/math/SafeMath.sol\";\nimport \"./lib/TransferHelper.sol\";\n\n/// @notice Transaction's Proxy of Path\ncontract GeneralPathProxy is ReentrancyGuard, Ownable {\n    using SafeMath for uint256;\n\n    string public name;\n\n    string public symbol;\n\n    address constant ETH_ADDRESS = 0xEeeeeEeeeEeEeeEeEeEeeEEEeeeeEeeeeeeeEEeE;\n    mapping(address => bool) public isWhiteListed;\n\n    address public dev;\n\n    uint256 public fee; // wei\n\n    /// @dev factoryowner\n    address public factory;\n\n    modifier onlyFactory() {\n        require(factory == msg.sender, \"ONLY_FACTORY\");\n        _;\n    }\n\n    /// @notice Swap's log.\n    /// @param fromToken token's address.\n    /// @param toToken token's address.\n    /// @param sender Who swap\n    /// @param fromAmount Input amount.\n    /// @param returnAmount toToken's amount include fee amount. Not cut fee yet.\n    event Swap(\n        address fromToken,\n        address toToken,\n        address sender,\n        uint256 fromAmount,\n        uint256 returnAmount\n    );\n\n    event SwapCrossChain(address fromToken, address sender, uint256 fromAmount);\n\n    event AddWhiteList(address contractAddress);\n\n    event RemoveWhiteList(address contractAddr);\n\n    event SetFee(uint256 fee);\n\n    event WithdrawETH(uint256 balance);\n\n    event Withdtraw(address token, uint256 balance);\n\n    event SetDev(address _dev);\n\n    event TransferFactoryTo(address _fac);\n\n    modifier noExpired(uint256 deadLine) {\n        require(deadLine >= block.timestamp, \"EXPIRED\");\n        _;\n    }\n\n    fallback() external payable {}\n\n    receive() external payable {}\n\n    constructor(\n        address _dev,\n        uint256 _fee,\n        address _owner,\n        address _factory\n    ) {\n        name = \"General Path Proxy\";\n        symbol = \"PROXY_V1\";\n        require(_dev != address(0), \"DEV_CAN_T_BE_0\");\n        require(_owner != address(0), \"OWNER_CAN_T_BE_0\");\n        require(_factory != address(0), \"FACTORY_CAN_T_BE_0\");\n        dev = _dev;\n        fee = _fee;\n        factory = _factory;\n        transferOwnership(_owner);\n    }\n\n    function addWhiteList(address contractAddr) public onlyFactory {\n        require(contractAddr != address(0), \"ADDRESS_CAN_T_BE_0\");\n        require(isWhiteListed[contractAddr] == false, \"ADDRESS_ALREADY_EXISTS\");\n        isWhiteListed[contractAddr] = true;\n        emit AddWhiteList(contractAddr);\n    }\n\n    function removeWhiteList(address contractAddr) public onlyFactory {\n        require(contractAddr != address(0), \"ADDRESS_CAN_T_BE_0\");\n        require(isWhiteListed[contractAddr] == true, \"ADDRESS_NOT_EXISTS\");\n        isWhiteListed[contractAddr] = false;\n        emit RemoveWhiteList(contractAddr);\n    }\n\n    /// @notice Excute transactions. \n    /// @param fromToken token's address. \n    /// @param toToken token's address. 0\n    /// @param approveTarget contract's address which will excute calldata \n    /// @param callDataConcat calldata \n    /// @param deadLine Deadline revert\n    /// @param isCrossChain \n    function swap(\n        address fromToken,\n        address toToken,\n        address approveTarget,\n        uint256 fromTokenAmount,\n        bytes calldata callDataConcat,\n        uint256 deadLine,\n        bool isCrossChain\n    ) external payable noExpired(deadLine) nonReentrant {\n        require(isWhiteListed[approveTarget], \"NOT_WHITELIST_CONTRACT\"); // \n        require(fromToken != address(0), \"FROMTOKEN_CANT_T_BE_0\"); // 0\n        if (!isCrossChain) {\n            // \n            require(toToken != address(0), \"TOTOKEN_CAN_T_BE_0\");\n        } else {\n            // \n            require(toToken == address(0), \"TOTOKEN_MUST_BE_0\"); // totoken0\n        }\n        uint256 _inputAmount; // \n        /// @dev \n        if (fromToken != ETH_ADDRESS) {\n            uint256 _fromTokenBalanceOrigin = IERC20(fromToken).balanceOf(\n                address(this)\n            );\n            TransferHelper.safeTransferFrom(\n                fromToken,\n                msg.sender,\n                address(this),\n                fromTokenAmount\n            );\n            uint256 _fromTokenBalanceNew = IERC20(fromToken).balanceOf(\n                address(this)\n            );\n            _inputAmount = _fromTokenBalanceNew.sub(_fromTokenBalanceOrigin);\n            require(\n                _inputAmount > 0,\n                \"NO_FROM_TOKEN_TRANSFER_TO_THIS_CONTRACT\"\n            );\n        } else {\n            _inputAmount = msg.value;\n        }\n        uint256 feeAmount = 0; // \n        /// @dev \n        if (fee > 0 && dev != address(0)) {\n            feeAmount = _inputAmount.mul(fee).div(10**18);\n        }\n        uint256 fromAmount = _inputAmount.sub(feeAmount); // \n        TransferHelper.safeApprove(fromToken, approveTarget, fromAmount); // \n        /// @dev dev\n        if (fee > 0 && dev != address(0) && fromToken != ETH_ADDRESS) {\n            TransferHelper.safeTransfer(fromToken, dev, feeAmount);\n        } else if (fee > 0 && dev != address(0) && fromToken == ETH_ADDRESS) {\n            TransferHelper.safeTransferETH(dev, feeAmount);\n        }\n        uint256 _toTokenBalanceOrigin = 0; // \n        if (!isCrossChain) {\n            // totoken\n            _toTokenBalanceOrigin = toToken == ETH_ADDRESS\n                ? address(this).balance\n                : IERC20(toToken).balanceOf(address(this));\n        }\n        (bool success, ) = approveTarget.call{\n            value: fromToken == ETH_ADDRESS ? fromAmount : 0\n        }(callDataConcat);\n        uint256 returnAmt = 0;\n        require(success, \"EXTERNAL_SWAP_EXECUTION_FAILED\");\n        /// @dev \n        if (!isCrossChain) {\n            // \n            returnAmt = toToken == ETH_ADDRESS\n                ? address(this).balance.sub(_toTokenBalanceOrigin)\n                : IERC20(toToken).balanceOf(address(this)).sub(\n                    _toTokenBalanceOrigin\n                );\n            require(returnAmt >= 0, \"RETURN_AMOUNT_IS_0\");\n            if (toToken == ETH_ADDRESS) {\n                TransferHelper.safeTransferETH(msg.sender, returnAmt);\n            } else {\n                TransferHelper.safeTransfer(toToken, msg.sender, returnAmt);\n            }\n            emit Swap(\n                fromToken,\n                toToken,\n                msg.sender,\n                fromTokenAmount,\n                returnAmt\n            );\n        } else {\n            emit SwapCrossChain(fromToken, msg.sender, fromTokenAmount);\n        }\n    }\n\n    function setFee(uint256 _fee) external onlyFactory {\n        fee = _fee;\n        emit SetFee(_fee);\n    }\n\n    function withdrawETH() external onlyOwner {\n        uint256 balance = address(this).balance;\n        TransferHelper.safeTransferETH(owner(), balance);\n        emit WithdrawETH(balance);\n    }\n\n    function withdraw(address token) external onlyOwner {\n        require(token != address(0), \"TOKEN_MUST_NOT_BE_0\");\n        uint256 balance = IERC20(token).balanceOf(address(this));\n        TransferHelper.safeTransfer(token, owner(), balance);\n        emit Withdtraw(token, balance);\n    }\n\n    function setDev(address _dev) external onlyFactory {\n        require(_dev != address(0), \"0_ADDRESS_CAN_T_BE_A_DEV\");\n        dev = _dev;\n        emit SetDev(_dev);\n    }\n\n    function transferFactoryTo(address _fac) external onlyFactory {\n        require(_fac != address(0), \"FACTORY_CAN_T_BE_0\");\n        factory = _fac;\n        emit TransferFactoryTo(_fac);\n    }\n}\n",
  "sourcePath": "/Users/zhangleping/github.com/0xa8c81519/path-contracts/contracts/GeneralPathProxy.sol",
  "compiler": {
    "name": "solc",
    "version": "0.8.0+commit.c7dfd78e.Emscripten.clang"
  },
  "schemaVersion": "3.4.1",
  "updatedAt": "2021-11-22T07:25:21.825Z",
  "networkType": "ethereum",
  "devdoc": {
    "events": {
      "Swap(address,address,address,uint256,uint256)": {
        "params": {
          "fromAmount": "Input amount.",
          "fromToken": "token's address.",
          "returnAmount": "toToken's amount include fee amount. Not cut fee yet.",
          "sender": "Who swap",
          "toToken": "token's address."
        }
      }
    },
    "kind": "dev",
    "methods": {
      "owner()": {
        "details": "Returns the address of the current owner."
      },
      "renounceOwnership()": {
        "details": "Leaves the contract without owner. It will not be possible to call `onlyOwner` functions anymore. Can only be called by the current owner. NOTE: Renouncing ownership will leave the contract without an owner, thereby removing any functionality that is only available to the owner."
      },
      "swap(address,address,address,uint256,bytes,uint256,bool)": {
        "params": {
          "approveTarget": "contract's address which will excute calldata ",
          "callDataConcat": "calldata ",
          "deadLine": "Deadline revert",
          "fromToken": "token's address. ",
          "isCrossChain": "",
          "toToken": "token's address. 0"
        }
      },
      "transferOwnership(address)": {
        "details": "Transfers ownership of the contract to a new account (`newOwner`). Can only be called by the current owner."
      }
    },
    "stateVariables": {
      "factory": {
        "details": "factoryowner"
      }
    },
    "version": 1
  },
  "userdoc": {
    "events": {
      "Swap(address,address,address,uint256,uint256)": {
        "notice": "Swap's log."
      }
    },
    "kind": "user",
    "methods": {
      "swap(address,address,address,uint256,bytes,uint256,bool)": {
        "notice": "Excute transactions. "
      }
    },
    "notice": "Transaction's Proxy of Path",
    "version": 1
  }
}