{
  "contractName": "PathProxyFactory",
  "abi": [
    {
      "inputs": [
        {
          "internalType": "address",
          "name": "_owner",
          "type": "address"
        },
        {
          "internalType": "address",
          "name": "_dev",
          "type": "address"
        },
        {
          "internalType": "uint256",
          "name": "_fee",
          "type": "uint256"
        }
      ],
      "stateMutability": "nonpayable",
      "type": "constructor"
    },
    {
      "anonymous": false,
      "inputs": [
        {
          "indexed": false,
          "internalType": "address",
          "name": "contractAddress",
          "type": "address"
        }
      ],
      "name": "AddWhiteList",
      "type": "event"
    },
    {
      "anonymous": false,
      "inputs": [
        {
          "indexed": false,
          "internalType": "address",
          "name": "dev",
          "type": "address"
        },
        {
          "indexed": false,
          "internalType": "uint256",
          "name": "fee",
          "type": "uint256"
        },
        {
          "indexed": false,
          "internalType": "address",
          "name": "owner",
          "type": "address"
        },
        {
          "indexed": false,
          "internalType": "address",
          "name": "factory",
          "type": "address"
        }
      ],
      "name": "CreateProxy",
      "type": "event"
    },
    {
      "anonymous": false,
      "inputs": [
        {
          "indexed": true,
          "internalType": "address",
          "name": "previousOwner",
          "type": "address"
        },
        {
          "indexed": true,
          "internalType": "address",
          "name": "newOwner",
          "type": "address"
        }
      ],
      "name": "OwnershipTransferred",
      "type": "event"
    },
    {
      "anonymous": false,
      "inputs": [
        {
          "indexed": false,
          "internalType": "address",
          "name": "contractAddr",
          "type": "address"
        }
      ],
      "name": "RemoveWhiteList",
      "type": "event"
    },
    {
      "anonymous": false,
      "inputs": [
        {
          "indexed": false,
          "internalType": "address",
          "name": "_dev",
          "type": "address"
        }
      ],
      "name": "SetDev",
      "type": "event"
    },
    {
      "anonymous": false,
      "inputs": [
        {
          "indexed": false,
          "internalType": "uint256",
          "name": "fee",
          "type": "uint256"
        }
      ],
      "name": "SetFee",
      "type": "event"
    },
    {
      "anonymous": false,
      "inputs": [
        {
          "indexed": false,
          "internalType": "address",
          "name": "_fac",
          "type": "address"
        }
      ],
      "name": "TransferFactoryTo",
      "type": "event"
    },
    {
      "inputs": [
        {
          "internalType": "address",
          "name": "",
          "type": "address"
        }
      ],
      "name": "isWhiteListed",
      "outputs": [
        {
          "internalType": "bool",
          "name": "",
          "type": "bool"
        }
      ],
      "stateMutability": "view",
      "type": "function"
    },
    {
      "inputs": [],
      "name": "name",
      "outputs": [
        {
          "internalType": "string",
          "name": "",
          "type": "string"
        }
      ],
      "stateMutability": "view",
      "type": "function"
    },
    {
      "inputs": [],
      "name": "owner",
      "outputs": [
        {
          "internalType": "address",
          "name": "",
          "type": "address"
        }
      ],
      "stateMutability": "view",
      "type": "function"
    },
    {
      "inputs": [
        {
          "internalType": "address",
          "name": "",
          "type": "address"
        }
      ],
      "name": "proxyExists",
      "outputs": [
        {
          "internalType": "bool",
          "name": "",
          "type": "bool"
        }
      ],
      "stateMutability": "view",
      "type": "function"
    },
    {
      "inputs": [
        {
          "internalType": "address",
          "name": "",
          "type": "address"
        }
      ],
      "name": "proxyMap",
      "outputs": [
        {
          "internalType": "address",
          "name": "",
          "type": "address"
        }
      ],
      "stateMutability": "view",
      "type": "function"
    },
    {
      "inputs": [],
      "name": "renounceOwnership",
      "outputs": [],
      "stateMutability": "nonpayable",
      "type": "function"
    },
    {
      "inputs": [],
      "name": "symbol",
      "outputs": [
        {
          "internalType": "string",
          "name": "",
          "type": "string"
        }
      ],
      "stateMutability": "view",
      "type": "function"
    },
    {
      "inputs": [
        {
          "internalType": "address",
          "name": "newOwner",
          "type": "address"
        }
      ],
      "name": "transferOwnership",
      "outputs": [],
      "stateMutability": "nonpayable",
      "type": "function"
    },
    {
      "inputs": [
        {
          "internalType": "uint256",
          "name": "",
          "type": "uint256"
        }
      ],
      "name": "users",
      "outputs": [
        {
          "internalType": "address",
          "name": "",
          "type": "address"
        }
      ],
      "stateMutability": "view",
      "type": "function"
    },
    {
      "inputs": [
        {
          "internalType": "uint256",
          "name": "",
          "type": "uint256"
        }
      ],
      "name": "whiteList",
      "outputs": [
        {
          "internalType": "address",
          "name": "",
          "type": "address"
        }
      ],
      "stateMutability": "view",
      "type": "function"
    },
    {
      "inputs": [],
      "name": "createProxy",
      "outputs": [],
      "stateMutability": "nonpayable",
      "type": "function"
    },
    {
      "inputs": [
        {
          "internalType": "uint256",
          "name": "_fee",
          "type": "uint256"
        }
      ],
      "name": "setFee",
      "outputs": [],
      "stateMutability": "nonpayable",
      "type": "function"
    },
    {
      "inputs": [
        {
          "internalType": "address",
          "name": "_dev",
          "type": "address"
        }
      ],
      "name": "setDev",
      "outputs": [],
      "stateMutability": "nonpayable",
      "type": "function"
    },
    {
      "inputs": [
        {
          "internalType": "address",
          "name": "contractAddr",
          "type": "address"
        }
      ],
      "name": "addWhiteList",
      "outputs": [],
      "stateMutability": "nonpayable",
      "type": "function"
    },
    {
      "inputs": [
        {
          "internalType": "address",
          "name": "contractAddr",
          "type": "address"
        }
      ],
      "name": "removeWhiteList",
      "outputs": [],
      "stateMutability": "nonpayable",
      "type": "function"
    },
    {
      "inputs": [
        {
          "internalType": "address",
          "name": "_fac",
          "type": "address"
        }
      ],
      "name": "tranferFactoryTo",
      "outputs": [],
      "stateMutability": "nonpayable",
      "type": "function"
    }
  ],
  "bytecode": "0x60806040523480156200001157600080fd5b506040516200386b3803806200386b8339810160408190526200003491620002ea565b620000486200004262000147565b6200014b565b60408051808201909152601280825271506174682050726f787920466163746f727960701b6020909201918252620000839160019162000227565b5060408051808201909152600a80825269464143544f52595f563160b01b6020909201918252620000b79160029162000227565b506001600160a01b038216620000ea5760405162461bcd60e51b8152600401620000e1906200039a565b60405180910390fd5b6001600160a01b038316620001135760405162461bcd60e51b8152600401620000e19062000370565b600380546001600160a01b0319166001600160a01b03841617905560048190556200013e836200019b565b50505062000434565b3390565b600080546001600160a01b038381166001600160a01b0319831681178455604051919092169283917f8be0079c531659141344cd1fd0a4f28419497f9722a3daafe3b4186f6b6457e09190a35050565b620001a562000147565b6001600160a01b0316620001b862000218565b6001600160a01b031614620001e15760405162461bcd60e51b8152600401620000e190620003c2565b6001600160a01b0381166200020a5760405162461bcd60e51b8152600401620000e1906200032a565b62000215816200014b565b50565b6000546001600160a01b031690565b8280546200023590620003f7565b90600052602060002090601f016020900481019282620002595760008555620002a4565b82601f106200027457805160ff1916838001178555620002a4565b82800160010185558215620002a4579182015b82811115620002a457825182559160200191906001019062000287565b50620002b2929150620002b6565b5090565b5b80821115620002b25760008155600101620002b7565b80516001600160a01b0381168114620002e557600080fd5b919050565b600080600060608486031215620002ff578283fd5b6200030a84620002cd565b92506200031a60208501620002cd565b9150604084015190509250925092565b60208082526026908201527f4f776e61626c653a206e6577206f776e657220697320746865207a65726f206160408201526564647265737360d01b606082015260800190565b60208082526010908201526f04f574e45525f43414e5f545f42455f360841b604082015260600190565b6020808252600e908201526d04445565f43414e5f545f42455f360941b604082015260600190565b6020808252818101527f4f776e61626c653a2063616c6c6572206973206e6f7420746865206f776e6572604082015260600190565b6002810460018216806200040c57607f821691505b602082108114156200042e57634e487b7160e01b600052602260045260246000fd5b50919050565b61342780620004446000396000f3fe60806040523480156200001157600080fd5b5060043610620001185760003560e01c80636f9170f611620000a5578063d477f05f116200006f578063d477f05f1462000228578063e7cd4a04146200023f578063e947e3821462000256578063f2fde38b146200026d5762000118565b80636f9170f614620001f3578063715018a6146200020a5780638da5cb5b146200021457806395d89b41146200021e5762000118565b8063365b98b211620000e7578063365b98b214620001955780635c475d4214620001bb578063684649a614620001d257806369fe0e2d14620001dc5762000118565b806306fdde03146200011d5780631a2b7052146200013f5780632042e5c214620001585780632f154ea7146200016f575b600080fd5b6200012762000284565b60405162000136919062001121565b60405180910390f35b62000156620001503660046200108e565b6200031a565b005b62000156620001693660046200108e565b620004a2565b62000186620001803660046200108e565b62000736565b60405162000136919062001116565b620001ac620001a6366004620010be565b6200074b565b604051620001369190620010d7565b620001ac620001cc366004620010be565b62000776565b6200015662000787565b62000156620001ed366004620010be565b62000a18565b62000186620002043660046200108e565b62000b68565b6200015662000b7d565b620001ac62000bd1565b6200012762000be0565b62000156620002393660046200108e565b62000bef565b62000156620002503660046200108e565b62000d7f565b620001ac620002673660046200108e565b62000f94565b620001566200027e3660046200108e565b62000faf565b6001805462000293906200136d565b80601f0160208091040260200160405190810160405280929190818152602001828054620002c1906200136d565b8015620003125780601f10620002e65761010080835404028352916020019162000312565b820191906000526020600020905b815481529060010190602001808311620002f457829003601f168201915b505050505081565b620003246200102c565b6001600160a01b03166200033762000bd1565b6001600160a01b031614620003695760405162461bcd60e51b8152600401620003609062001212565b60405180910390fd5b6001600160a01b038116620003925760405162461bcd60e51b8152600401620003609062001247565b60005b600754811015620004655760006005600060078481548110620003c857634e487b7160e01b600052603260045260246000fd5b60009182526020808320909101546001600160a01b039081168452908301939093526040918201902054905163dbb0a4e360e01b815291169150819063dbb0a4e3906200041a908690600401620010d7565b600060405180830381600087803b1580156200043557600080fd5b505af11580156200044a573d6000803e3d6000fd5b505050505080806200045c90620013aa565b91505062000395565b507fd01274d62c4192b5ba600651cb7a69f233c480d88b57471b6347633db7b2ce4581604051620004979190620010d7565b60405180910390a150565b620004ac6200102c565b6001600160a01b0316620004bf62000bd1565b6001600160a01b031614620004e85760405162461bcd60e51b8152600401620003609062001212565b6001600160a01b038116620005115760405162461bcd60e51b81526004016200036090620012a3565b6001600160a01b03811660009081526009602052604090205460ff161515600114620005515760405162461bcd60e51b8152600401620003609062001177565b60005b6007548110156200062457600060056000600784815481106200058757634e487b7160e01b600052603260045260246000fd5b60009182526020808320909101546001600160a01b039081168452908301939093526040918201902054905163102172e160e11b8152911691508190632042e5c290620005d9908690600401620010d7565b600060405180830381600087803b158015620005f457600080fd5b505af115801562000609573d6000803e3d6000fd5b505050505080806200061b90620013aa565b91505062000554565b5060005b600854811015620006e357816001600160a01b0316600882815481106200065f57634e487b7160e01b600052603260045260246000fd5b6000918252602090912001546001600160a01b03161415620006ce576000600882815481106200069f57634e487b7160e01b600052603260045260246000fd5b9060005260206000200160006101000a8154816001600160a01b0302191690836001600160a01b031602179055505b80620006da81620013aa565b91505062000628565b506001600160a01b03811660009081526009602052604090819020805460ff19169055517f1e17ee0599b7c09bb1d0ff1e8086007909da8bfba5c7d18319cb558e66db37ee9062000497908390620010d7565b60066020526000908152604090205460ff1681565b600781815481106200075c57600080fd5b6000918252602090912001546001600160a01b0316905081565b600881815481106200075c57600080fd5b600854620007a95760405162461bcd60e51b815260040162000360906200133d565b33620007c95760405162461bcd60e51b81526004016200036090620011e9565b3360009081526006602052604090205460ff1615620007fc5760405162461bcd60e51b8152600401620003609062001306565b6003546004546040516000926001600160a01b0316919033903090620008229062001080565b620008319493929190620010eb565b604051809103906000f0801580156200084e573d6000803e3d6000fd5b50905060005b6008548110156200095a5760006001600160a01b0316600882815481106200088c57634e487b7160e01b600052603260045260246000fd5b6000918252602090912001546001600160a01b0316146200094557816001600160a01b031663e7cd4a0460088381548110620008d857634e487b7160e01b600052603260045260246000fd5b6000918252602090912001546040516001600160e01b031960e084901b16815262000910916001600160a01b031690600401620010d7565b600060405180830381600087803b1580156200092b57600080fd5b505af115801562000940573d6000803e3d6000fd5b505050505b806200095181620013aa565b91505062000854565b5033600081815260056020908152604080832080546001600160a01b038088166001600160a01b0319928316179092556006909352818420805460ff191660019081179091556007805491820181559094527fa66cc928b5edb82af9bd49922954155ab7b0942694bea4ce44661d9a8736c6889093018054909216841790915560035460045491517fda8319500e1cf93c0a371153377e64edcfa18ef82ca40a1fc669b73c640aee5f946200049794929092169291903090620010eb565b62000a226200102c565b6001600160a01b031662000a3562000bd1565b6001600160a01b03161462000a5e5760405162461bcd60e51b8152600401620003609062001212565b60005b60075481101562000b31576000600560006007848154811062000a9457634e487b7160e01b600052603260045260246000fd5b60009182526020808320909101546001600160a01b03908116845290830193909352604091820190205490516369fe0e2d60e01b81529116915081906369fe0e2d9062000ae690869060040162001364565b600060405180830381600087803b15801562000b0157600080fd5b505af115801562000b16573d6000803e3d6000fd5b5050505050808062000b2890620013aa565b91505062000a61565b5060048190556040517e172ddfc5ae88d08b3de01a5a187667c37a5a53989e8c175055cb6c993792a7906200049790839062001364565b60096020526000908152604090205460ff1681565b62000b876200102c565b6001600160a01b031662000b9a62000bd1565b6001600160a01b03161462000bc35760405162461bcd60e51b8152600401620003609062001212565b62000bcf600062001030565b565b6000546001600160a01b031690565b6002805462000293906200136d565b62000bf96200102c565b6001600160a01b031662000c0c62000bd1565b6001600160a01b03161462000c355760405162461bcd60e51b8152600401620003609062001212565b6001600160a01b03811662000c5e5760405162461bcd60e51b81526004016200036090620012cf565b60005b60075481101562000d31576000600560006007848154811062000c9457634e487b7160e01b600052603260045260246000fd5b60009182526020808320909101546001600160a01b039081168452908301939093526040918201902054905163d477f05f60e01b815291169150819063d477f05f9062000ce6908690600401620010d7565b600060405180830381600087803b15801562000d0157600080fd5b505af115801562000d16573d6000803e3d6000fd5b5050505050808062000d2890620013aa565b91505062000c61565b50600380546001600160a01b0319166001600160a01b0383161790556040517f8daa6bb00de042a7d51816fcee4a3d5c1e91a2128fd64fa1a9a38afa0d26beb59062000497908390620010d7565b62000d896200102c565b6001600160a01b031662000d9c62000bd1565b6001600160a01b03161462000dc55760405162461bcd60e51b8152600401620003609062001212565b6001600160a01b03811662000dee5760405162461bcd60e51b81526004016200036090620012a3565b6001600160a01b03811660009081526009602052604090205460ff161562000e2a5760405162461bcd60e51b8152600401620003609062001273565b60005b60075481101562000efd576000600560006007848154811062000e6057634e487b7160e01b600052603260045260246000fd5b60009182526020808320909101546001600160a01b03908116845290830193909352604091820190205490516339f3528160e21b815291169150819063e7cd4a049062000eb2908690600401620010d7565b600060405180830381600087803b15801562000ecd57600080fd5b505af115801562000ee2573d6000803e3d6000fd5b5050505050808062000ef490620013aa565b91505062000e2d565b506008805460018082019092557ff3f7a9fe364faab93b216da50a3214154f22a0a2b415b23a84c8169e8b636ee30180546001600160a01b0319166001600160a01b03841690811790915560009081526009602052604090819020805460ff1916909217909155517ff8d5f40934646cedded2cab1b5960f020db583f154fabcf831277b87d1803d139062000497908390620010d7565b6005602052600090815260409020546001600160a01b031681565b62000fb96200102c565b6001600160a01b031662000fcc62000bd1565b6001600160a01b03161462000ff55760405162461bcd60e51b8152600401620003609062001212565b6001600160a01b0381166200101e5760405162461bcd60e51b81526004016200036090620011a3565b620010298162001030565b50565b3390565b600080546001600160a01b038381166001600160a01b0319831681178455604051919092169283917f8be0079c531659141344cd1fd0a4f28419497f9722a3daafe3b4186f6b6457e09190a35050565b61201f80620013d383390190565b600060208284031215620010a0578081fd5b81356001600160a01b0381168114620010b7578182fd5b9392505050565b600060208284031215620010d0578081fd5b5035919050565b6001600160a01b0391909116815260200190565b6001600160a01b03948516815260208101939093529083166040830152909116606082015260800190565b901515815260200190565b6000602080835283518082850152825b818110156200114f5785810183015185820160400152820162001131565b81811115620011615783604083870101525b50601f01601f1916929092016040019392505050565b602080825260129082015271414444524553535f4e4f545f45584953545360701b604082015260600190565b60208082526026908201527f4f776e61626c653a206e6577206f776e657220697320746865207a65726f206160408201526564647265737360d01b606082015260800190565b6020808252600f908201526e0555345525f43414e5f545f42455f3608c1b604082015260600190565b6020808252818101527f4f776e61626c653a2063616c6c6572206973206e6f7420746865206f776e6572604082015260600190565b6020808252601290820152710464143544f52595f43414e5f545f42455f360741b604082015260600190565b602080825260169082015275414444524553535f414c52454144595f45584953545360501b604082015260600190565b6020808252601290820152710414444524553535f43414e5f545f42455f360741b604082015260600190565b60208082526018908201527f305f414444524553535f43414e5f545f42455f415f4445560000000000000000604082015260600190565b60208082526018908201527f555345525f414c52454144595f4841535f415f50524f58590000000000000000604082015260600190565b6020808252600d908201526c1393d7d5d212551157d31254d5609a1b604082015260600190565b90815260200190565b6002810460018216806200138257607f821691505b60208210811415620013a457634e487b7160e01b600052602260045260246000fd5b50919050565b6000600019821415620013cb57634e487b7160e01b81526011600452602481fd5b506001019056fe60806040523480156200001157600080fd5b506040516200201f3803806200201f83398101604081905262000034916200032e565b60016000556200004d6200004762000189565b6200018d565b6040805180820190915260128082527147656e6572616c20506174682050726f787960701b602090920191825262000088916002916200026b565b506040805180820190915260088082526750524f58595f563160c01b6020909201918252620000ba916003916200026b565b506001600160a01b038416620000ed5760405162461bcd60e51b8152600401620000e490620003f1565b60405180910390fd5b6001600160a01b038216620001165760405162461bcd60e51b8152600401620000e490620003c7565b6001600160a01b0381166200013f5760405162461bcd60e51b8152600401620000e4906200044e565b600580546001600160a01b038087166001600160a01b031992831617909255600685905560078054928416929091169190911790556200017f82620001df565b50505050620004b7565b3390565b600180546001600160a01b038381166001600160a01b0319831681179093556040519116919082907f8be0079c531659141344cd1fd0a4f28419497f9722a3daafe3b4186f6b6457e090600090a35050565b620001e962000189565b6001600160a01b0316620001fc6200025c565b6001600160a01b031614620002255760405162461bcd60e51b8152600401620000e49062000419565b6001600160a01b0381166200024e5760405162461bcd60e51b8152600401620000e49062000381565b62000259816200018d565b50565b6001546001600160a01b031690565b82805462000279906200047a565b90600052602060002090601f0160209004810192826200029d5760008555620002e8565b82601f10620002b857805160ff1916838001178555620002e8565b82800160010185558215620002e8579182015b82811115620002e8578251825591602001919060010190620002cb565b50620002f6929150620002fa565b5090565b5b80821115620002f65760008155600101620002fb565b80516001600160a01b03811681146200032957600080fd5b919050565b6000806000806080858703121562000344578384fd5b6200034f8562000311565b935060208501519250620003666040860162000311565b9150620003766060860162000311565b905092959194509250565b60208082526026908201527f4f776e61626c653a206e6577206f776e657220697320746865207a65726f206160408201526564647265737360d01b606082015260800190565b60208082526010908201526f04f574e45525f43414e5f545f42455f360841b604082015260600190565b6020808252600e908201526d04445565f43414e5f545f42455f360941b604082015260600190565b6020808252818101527f4f776e61626c653a2063616c6c6572206973206e6f7420746865206f776e6572604082015260600190565b6020808252601290820152710464143544f52595f43414e5f545f42455f360741b604082015260600190565b6002810460018216806200048f57607f821691505b60208210811415620004b157634e487b7160e01b600052602260045260246000fd5b50919050565b611b5880620004c76000396000f3fe6080604052600436106101025760003560e01c806395d89b4111610095578063ddca3f4311610064578063ddca3f4314610279578063e086e5ec1461029b578063e7cd4a04146102b0578063f2fde38b146102d0578063ff6e2c87146102f057610109565b806395d89b411461020f578063c45a015514610224578063d477f05f14610239578063dbb0a4e31461025957610109565b80636f9170f6116100d15780636f9170f614610196578063715018a6146101c35780638da5cb5b146101d857806391cca3db146101fa57610109565b806306fdde031461010b5780630d4717b8146101365780632042e5c21461015657806369fe0e2d1461017657610109565b3661010957005b005b34801561011757600080fd5b50610120610303565b60405161012d91906115f4565b60405180910390f35b34801561014257600080fd5b5061010961015136600461140f565b610391565b34801561016257600080fd5b5061010961017136600461140f565b6104a9565b34801561018257600080fd5b50610109610191366004611508565b610591565b3480156101a257600080fd5b506101b66101b136600461140f565b6105ef565b60405161012d91906115e9565b3480156101cf57600080fd5b50610109610604565b3480156101e457600080fd5b506101ed61064f565b60405161012d9190611564565b34801561020657600080fd5b506101ed61065e565b34801561021b57600080fd5b5061012061066d565b34801561023057600080fd5b506101ed61067a565b34801561024557600080fd5b5061010961025436600461140f565b610689565b34801561026557600080fd5b5061010961027436600461140f565b610724565b34801561028557600080fd5b5061028e6107bf565b60405161012d9190611a34565b3480156102a757600080fd5b506101096107c5565b3480156102bc57600080fd5b506101096102cb36600461140f565b610845565b3480156102dc57600080fd5b506101096102eb36600461140f565b610921565b6101096102fe366004611429565b610992565b6002805461031090611ac3565b80601f016020809104026020016040519081016040528092919081815260200182805461033c90611ac3565b80156103895780601f1061035e57610100808354040283529160200191610389565b820191906000526020600020905b81548152906001019060200180831161036c57829003601f168201915b505050505081565b610399611012565b6001600160a01b03166103aa61064f565b6001600160a01b0316146103d95760405162461bcd60e51b81526004016103d090611802565b60405180910390fd5b6040516370a0823160e01b81526000906001600160a01b038316906370a0823190610408903090600401611564565b60206040518083038186803b15801561042057600080fd5b505afa158015610434573d6000803e3d6000fd5b505050506040513d601f19601f820116820180604052508101906104589190611520565b905061046c8261046661064f565b83611016565b7f7bf0873174a9cc6b28e039b52e74903dd59d650205f32748e3c3dd6b9918ea87828260405161049d9291906115d0565b60405180910390a15050565b6007546001600160a01b031633146104d35760405162461bcd60e51b81526004016103d090611795565b6001600160a01b0381166104f95760405162461bcd60e51b81526004016103d090611956565b6001600160a01b03811660009081526004602052604090205460ff1615156001146105365760405162461bcd60e51b81526004016103d09061165e565b6001600160a01b03811660009081526004602052604090819020805460ff19169055517f1e17ee0599b7c09bb1d0ff1e8086007909da8bfba5c7d18319cb558e66db37ee90610586908390611564565b60405180910390a150565b6007546001600160a01b031633146105bb5760405162461bcd60e51b81526004016103d090611795565b60068190556040517e172ddfc5ae88d08b3de01a5a187667c37a5a53989e8c175055cb6c993792a790610586908390611a34565b60046020526000908152604090205460ff1681565b61060c611012565b6001600160a01b031661061d61064f565b6001600160a01b0316146106435760405162461bcd60e51b81526004016103d090611802565b61064d6000611103565b565b6001546001600160a01b031690565b6005546001600160a01b031681565b6003805461031090611ac3565b6007546001600160a01b031681565b6007546001600160a01b031633146106b35760405162461bcd60e51b81526004016103d090611795565b6001600160a01b0381166106d95760405162461bcd60e51b81526004016103d090611982565b600580546001600160a01b0319166001600160a01b0383161790556040517f8daa6bb00de042a7d51816fcee4a3d5c1e91a2128fd64fa1a9a38afa0d26beb590610586908390611564565b6007546001600160a01b0316331461074e5760405162461bcd60e51b81526004016103d090611795565b6001600160a01b0381166107745760405162461bcd60e51b81526004016103d090611867565b600780546001600160a01b0319166001600160a01b0383161790556040517fd01274d62c4192b5ba600651cb7a69f233c480d88b57471b6347633db7b2ce4590610586908390611564565b60065481565b6107cd611012565b6001600160a01b03166107de61064f565b6001600160a01b0316146108045760405162461bcd60e51b81526004016103d090611802565b4761081661081061064f565b82611155565b7f94effa14ea3a1ef396fa2fd829336d1597f1d76b548c26bfa2332869706638af816040516105869190611a34565b6007546001600160a01b0316331461086f5760405162461bcd60e51b81526004016103d090611795565b6001600160a01b0381166108955760405162461bcd60e51b81526004016103d090611956565b6001600160a01b03811660009081526004602052604090205460ff16156108ce5760405162461bcd60e51b81526004016103d090611893565b6001600160a01b03811660009081526004602052604090819020805460ff19166001179055517ff8d5f40934646cedded2cab1b5960f020db583f154fabcf831277b87d1803d1390610586908390611564565b610929611012565b6001600160a01b031661093a61064f565b6001600160a01b0316146109605760405162461bcd60e51b81526004016103d090611802565b6001600160a01b0381166109865760405162461bcd60e51b81526004016103d0906116b5565b61098f81611103565b50565b81428110156109b35760405162461bcd60e51b81526004016103d0906118c3565b600260005414156109d65760405162461bcd60e51b81526004016103d0906119fd565b600260009081556001600160a01b03881681526004602052604090205460ff16610a125760405162461bcd60e51b81526004016103d090611837565b6001600160a01b038916610a385760405162461bcd60e51b81526004016103d0906118e4565b81610a68576001600160a01b038816610a635760405162461bcd60e51b81526004016103d0906116fb565b610a8f565b6001600160a01b03881615610a8f5760405162461bcd60e51b81526004016103d09061168a565b60006001600160a01b038a1673eeeeeeeeeeeeeeeeeeeeeeeeeeeeeeeeeeeeeeee14610bf6576040516370a0823160e01b81526000906001600160a01b038c16906370a0823190610ae4903090600401611564565b60206040518083038186803b158015610afc57600080fd5b505afa158015610b10573d6000803e3d6000fd5b505050506040513d601f19601f82011682018060405250810190610b349190611520565b9050610b428b33308b6111e7565b6040516370a0823160e01b81526000906001600160a01b038d16906370a0823190610b71903090600401611564565b60206040518083038186803b158015610b8957600080fd5b505afa158015610b9d573d6000803e3d6000fd5b505050506040513d601f19601f82011682018060405250810190610bc19190611520565b9050610bcd81836112d7565b925060008311610bef5760405162461bcd60e51b81526004016103d0906117bb565b5050610bf9565b50345b600080600654118015610c1657506005546001600160a01b031615155b15610c4557610c42670de0b6b3a7640000610c3c600654856112ea90919063ffffffff16565b906112f6565b90505b6000610c5183836112d7565b9050610c5e8c8b83611302565b6000600654118015610c7a57506005546001600160a01b031615155b8015610ca357506001600160a01b038c1673eeeeeeeeeeeeeeeeeeeeeeeeeeeeeeeeeeeeeeee14155b15610cc557600554610cc0908d906001600160a01b031684611016565b610d24565b6000600654118015610ce157506005546001600160a01b031615155b8015610d0957506001600160a01b038c1673eeeeeeeeeeeeeeeeeeeeeeeeeeeeeeeeeeeeeeee145b15610d2457600554610d24906001600160a01b031683611155565b600085610dd5576001600160a01b038c1673eeeeeeeeeeeeeeeeeeeeeeeeeeeeeeeeeeeeeeee14610dd0576040516370a0823160e01b81526001600160a01b038d16906370a0823190610d7b903090600401611564565b60206040518083038186803b158015610d9357600080fd5b505afa158015610da7573d6000803e3d6000fd5b505050506040513d601f19601f82011682018060405250810190610dcb9190611520565b610dd2565b475b90505b60006001600160a01b03808d16908f1673eeeeeeeeeeeeeeeeeeeeeeeeeeeeeeeeeeeeeeee14610e06576000610e08565b835b8b8b604051610e18929190611538565b60006040518083038185875af1925050503d8060008114610e55576040519150601f19603f3d011682016040523d82523d6000602084013e610e5a565b606091505b50509050600081610e7d5760405162461bcd60e51b81526004016103d09061175e565b87610fc0576001600160a01b038e1673eeeeeeeeeeeeeeeeeeeeeeeeeeeeeeeeeeeeeeee14610f3157610f2c838f6001600160a01b03166370a08231306040518263ffffffff1660e01b8152600401610ed69190611564565b60206040518083038186803b158015610eee57600080fd5b505afa158015610f02573d6000803e3d6000fd5b505050506040513d601f19601f82011682018060405250810190610f269190611520565b906112d7565b610f3b565b610f3b47846112d7565b90506001600160a01b038e1673eeeeeeeeeeeeeeeeeeeeeeeeeeeeeeeeeeeeeeee1415610f7157610f6c3382611155565b610f7c565b610f7c8e3383611016565b7fcd3829a3813dc3cdd188fd3d01dcf3268c16be2fdd2dd21d0665418816e460628f8f338f85604051610fb3959493929190611578565b60405180910390a1610ffc565b7f34d0a8e5b6aeb8af74211e98cacf797d309f5359087a7ef68c5573e2033428ba8f338e604051610ff3939291906115ac565b60405180910390a15b5050600160005550505050505050505050505050565b3390565b600080846001600160a01b031663a9059cbb858560405160240161103b9291906115d0565b6040516020818303038152906040529060e01b6020820180516001600160e01b0383818316178352505050506040516110749190611548565b6000604051808303816000865af19150503d80600081146110b1576040519150601f19603f3d011682016040523d82523d6000602084013e6110b6565b606091505b50915091508180156110e05750805115806110e05750808060200190518101906110e091906114ec565b6110fc5760405162461bcd60e51b81526004016103d090611627565b5050505050565b600180546001600160a01b038381166001600160a01b0319831681179093556040519116919082907f8be0079c531659141344cd1fd0a4f28419497f9722a3daafe3b4186f6b6457e090600090a35050565b604080516000808252602082019092526001600160a01b03841690839060405161117f9190611548565b60006040518083038185875af1925050503d80600081146111bc576040519150601f19603f3d011682016040523d82523d6000602084013e6111c1565b606091505b50509050806111e25760405162461bcd60e51b81526004016103d090611913565b505050565b600080856001600160a01b03166323b872dd86868660405160240161120e939291906115ac565b6040516020818303038152906040529060e01b6020820180516001600160e01b0383818316178352505050506040516112479190611548565b6000604051808303816000865af19150503d8060008114611284576040519150601f19603f3d011682016040523d82523d6000602084013e611289565b606091505b50915091508180156112b35750805115806112b35750808060200190518101906112b391906114ec565b6112cf5760405162461bcd60e51b81526004016103d0906119b9565b505050505050565b60006112e38284611a7c565b9392505050565b60006112e38284611a5d565b60006112e38284611a3d565b600080846001600160a01b031663095ea7b385856040516024016113279291906115d0565b6040516020818303038152906040529060e01b6020820180516001600160e01b0383818316178352505050506040516113609190611548565b6000604051808303816000865af19150503d806000811461139d576040519150601f19603f3d011682016040523d82523d6000602084013e6113a2565b606091505b50915091508180156113cc5750805115806113cc5750808060200190518101906113cc91906114ec565b6110fc5760405162461bcd60e51b81526004016103d090611727565b80356001600160a01b03811681146113ff57600080fd5b919050565b80356113ff81611b14565b600060208284031215611420578081fd5b6112e3826113e8565b60008060008060008060008060e0898b031215611444578384fd5b61144d896113e8565b975061145b60208a016113e8565b965061146960408a016113e8565b955060608901359450608089013567ffffffffffffffff8082111561148c578586fd5b818b0191508b601f83011261149f578586fd5b8135818111156114ad578687fd5b8c60208285010111156114be578687fd5b60208301965080955050505060a089013591506114dd60c08a01611404565b90509295985092959890939650565b6000602082840312156114fd578081fd5b81516112e381611b14565b600060208284031215611519578081fd5b5035919050565b600060208284031215611531578081fd5b5051919050565b6000828483379101908152919050565b6000825161155a818460208701611a93565b9190910192915050565b6001600160a01b0391909116815260200190565b6001600160a01b03958616815293851660208501529190931660408301526060820192909252608081019190915260a00190565b6001600160a01b039384168152919092166020820152604081019190915260600190565b6001600160a01b03929092168252602082015260400190565b901515815260200190565b6000602082528251806020840152611613816040850160208701611a93565b601f01601f19169190910160400192915050565b6020808252601f908201527f5472616e7366657248656c7065723a205452414e534645525f4641494c454400604082015260600190565b602080825260129082015271414444524553535f4e4f545f45584953545360701b604082015260600190565b6020808252601190820152700544f544f4b454e5f4d5553545f42455f3607c1b604082015260600190565b60208082526026908201527f4f776e61626c653a206e6577206f776e657220697320746865207a65726f206160408201526564647265737360d01b606082015260800190565b6020808252601290820152710544f544f4b454e5f43414e5f545f42455f360741b604082015260600190565b6020808252601e908201527f5472616e7366657248656c7065723a20415050524f56455f4641494c45440000604082015260600190565b6020808252601e908201527f45585445524e414c5f535741505f455845435554494f4e5f4641494c45440000604082015260600190565b6020808252600c908201526b4f4e4c595f464143544f525960a01b604082015260600190565b60208082526027908201527f4e4f5f46524f4d5f544f4b454e5f5452414e534645525f544f5f544849535f4360408201526613d395149050d560ca1b606082015260800190565b6020808252818101527f4f776e61626c653a2063616c6c6572206973206e6f7420746865206f776e6572604082015260600190565b6020808252601690820152751393d517d5d2125511531254d517d0d3d395149050d560521b604082015260600190565b6020808252601290820152710464143544f52595f43414e5f545f42455f360741b604082015260600190565b602080825260169082015275414444524553535f414c52454144595f45584953545360501b604082015260600190565b6020808252600790820152661156141254915160ca1b604082015260600190565b602080825260159082015274046524f4d544f4b454e5f43414e545f545f42455f3605c1b604082015260600190565b60208082526023908201527f5472616e7366657248656c7065723a204554485f5452414e534645525f46414960408201526213115160ea1b606082015260800190565b6020808252601290820152710414444524553535f43414e5f545f42455f360741b604082015260600190565b60208082526018908201527f305f414444524553535f43414e5f545f42455f415f4445560000000000000000604082015260600190565b60208082526024908201527f5472616e7366657248656c7065723a205452414e534645525f46524f4d5f46416040820152631253115160e21b606082015260800190565b6020808252601f908201527f5265656e7472616e637947756172643a207265656e7472616e742063616c6c00604082015260600190565b90815260200190565b600082611a5857634e487b7160e01b81526012600452602481fd5b500490565b6000816000190483118215151615611a7757611a77611afe565b500290565b600082821015611a8e57611a8e611afe565b500390565b60005b83811015611aae578181015183820152602001611a96565b83811115611abd576000848401525b50505050565b600281046001821680611ad757607f821691505b60208210811415611af857634e487b7160e01b600052602260045260246000fd5b50919050565b634e487b7160e01b600052601160045260246000fd5b801515811461098f57600080fdfea26469706673582212206f5b8b45bf4c0725199149628023bba33fec2f8a5ac252fce0c7dc737efb7a4b64736f6c63430008000033a264697066735822122040e2dc8fda36a424deee7489be28a0a1a31bc0639b766fd2aabb304bf7f17d1664736f6c63430008000033",
  "immutableReferences": {},
  "source": "// SPDX-License-Identifier: MIT\n\npragma solidity ^0.8.0;\n\nimport \"@openzeppelin/contracts/access/Ownable.sol\";\nimport \"./GeneralPathProxy.sol\";\nimport \"./interfaces/IGeneralPathProxy.sol\";\n\n/// @notice Path Proxy's Factory\ncontract PathProxyFactory is Ownable {\n    string public name;\n\n    string public symbol;\n\n    address dev;\n\n    uint256 fee;\n\n    mapping(address => address) public proxyMap;\n\n    mapping(address => bool) public proxyExists;\n\n    address[] public users;\n\n    address[] public whiteList;\n    mapping(address => bool) public isWhiteListed;\n\n    event CreateProxy(address dev, uint256 fee, address owner, address factory);\n    event SetFee(uint256 fee);\n    event SetDev(address _dev);\n    event AddWhiteList(address contractAddress);\n    event RemoveWhiteList(address contractAddr);\n    event TransferFactoryTo(address _fac);\n\n    constructor(\n        address _owner,\n        address _dev,\n        uint256 _fee\n    ) {\n        name = \"Path Proxy Factory\";\n        symbol = \"FACTORY_V1\";\n\n        require(_dev != address(0), \"DEV_CAN_T_BE_0\");\n        require(_owner != address(0), \"OWNER_CAN_T_BE_0\");\n        dev = _dev;\n        fee = _fee;\n        transferOwnership(_owner);\n    }\n\n    function createProxy() public {\n        require(whiteList.length > 0, \"NO_WHITE_LIST\");\n        require(msg.sender != address(0), \"USER_CAN_T_BE_0\");\n        require(proxyExists[msg.sender] == false, \"USER_ALREADY_HAS_A_PROXY\");\n        GeneralPathProxy proxy = new GeneralPathProxy(\n            dev,\n            fee,\n            msg.sender,\n            address(this)\n        );\n        for (uint256 i = 0; i < whiteList.length; i++) {\n            if (whiteList[i] != address(0)) {\n                proxy.addWhiteList(whiteList[i]);\n            }\n        }\n        proxyMap[msg.sender] = address(proxy);\n        proxyExists[msg.sender] = true;\n        users.push(msg.sender);\n        emit CreateProxy(dev, fee, msg.sender, address(this));\n    }\n\n    function setFee(uint256 _fee) external onlyOwner {\n        for (uint256 i = 0; i < users.length; i++) {\n            IGeneralPathProxy proxy = IGeneralPathProxy(proxyMap[users[i]]);\n            proxy.setFee(_fee);\n        }\n        fee = _fee;\n        emit SetFee(_fee);\n    }\n\n    function setDev(address _dev) external onlyOwner {\n        require(_dev != address(0), \"0_ADDRESS_CAN_T_BE_A_DEV\");\n        for (uint256 i = 0; i < users.length; i++) {\n            IGeneralPathProxy proxy = IGeneralPathProxy(proxyMap[users[i]]);\n            proxy.setDev(_dev);\n        }\n        dev = _dev;\n        emit SetDev(_dev);\n    }\n\n    function addWhiteList(address contractAddr) public onlyOwner {\n        require(contractAddr != address(0), \"ADDRESS_CAN_T_BE_0\");\n        require(isWhiteListed[contractAddr] == false, \"ADDRESS_ALREADY_EXISTS\");\n        for (uint256 i = 0; i < users.length; i++) {\n            IGeneralPathProxy proxy = IGeneralPathProxy(proxyMap[users[i]]);\n            proxy.addWhiteList(contractAddr);\n        }\n        whiteList.push(contractAddr);\n        isWhiteListed[contractAddr] = true;\n        emit AddWhiteList(contractAddr);\n    }\n\n    function removeWhiteList(address contractAddr) public onlyOwner {\n        require(contractAddr != address(0), \"ADDRESS_CAN_T_BE_0\");\n        require(isWhiteListed[contractAddr] == true, \"ADDRESS_NOT_EXISTS\");\n        for (uint256 i = 0; i < users.length; i++) {\n            IGeneralPathProxy proxy = IGeneralPathProxy(proxyMap[users[i]]);\n            proxy.removeWhiteList(contractAddr);\n        }\n        for (uint256 i = 0; i < whiteList.length; i++) {\n            if (whiteList[i] == contractAddr) {\n                whiteList[i] = address(0);\n            }\n        }\n        isWhiteListed[contractAddr] = false;\n        emit RemoveWhiteList(contractAddr);\n    }\n\n    function tranferFactoryTo(address _fac) public onlyOwner {\n        require(_fac != address(0), \"FACTORY_CAN_T_BE_0\");\n        for (uint256 i = 0; i < users.length; i++) {\n            IGeneralPathProxy proxy = IGeneralPathProxy(proxyMap[users[i]]);\n            proxy.transferFactoryTo(_fac);\n        }\n        emit TransferFactoryTo(_fac);\n    }\n}\n",
  "sourcePath": "/Users/zhangleping/github.com/0xa8c81519/path-contracts/contracts/PathProxyFactory.sol",
  "compiler": {
    "name": "solc",
    "version": "0.8.0+commit.c7dfd78e.Emscripten.clang"
  },
  "schemaVersion": "3.4.1",
  "updatedAt": "2021-11-15T07:48:33.402Z",
  "devdoc": {
    "kind": "dev",
    "methods": {
      "owner()": {
        "details": "Returns the address of the current owner."
      },
      "renounceOwnership()": {
        "details": "Leaves the contract without owner. It will not be possible to call `onlyOwner` functions anymore. Can only be called by the current owner. NOTE: Renouncing ownership will leave the contract without an owner, thereby removing any functionality that is only available to the owner."
      },
      "transferOwnership(address)": {
        "details": "Transfers ownership of the contract to a new account (`newOwner`). Can only be called by the current owner."
      }
    },
    "version": 1
  },
  "userdoc": {
    "kind": "user",
    "methods": {},
    "notice": "Path Proxy's Factory",
    "version": 1
  }
}